{"abi":[{"type":"constructor","inputs":[{"name":"_stablecoin","type":"address","internalType":"address"}],"stateMutability":"nonpayable"},{"type":"receive","stateMutability":"payable"},{"type":"function","name":"createOrder","inputs":[{"name":"amount","type":"uint256","internalType":"uint256"},{"name":"orderType","type":"string","internalType":"string"}],"outputs":[{"name":"","type":"uint256","internalType":"uint256"}],"stateMutability":"nonpayable"},{"type":"function","name":"drain","inputs":[],"outputs":[],"stateMutability":"nonpayable"},{"type":"function","name":"feeProfit","inputs":[],"outputs":[{"name":"","type":"uint256","internalType":"uint256"}],"stateMutability":"view"},{"type":"function","name":"fulfillOrder","inputs":[{"name":"orderId","type":"uint256","internalType":"uint256"}],"outputs":[],"stateMutability":"nonpayable"},{"type":"function","name":"getCurrentOrderId","inputs":[],"outputs":[{"name":"","type":"uint256","internalType":"uint256"}],"stateMutability":"view"},{"type":"function","name":"getFeeProfit","inputs":[],"outputs":[{"name":"","type":"uint256","internalType":"uint256"}],"stateMutability":"nonpayable"},{"type":"function","name":"getNode","inputs":[],"outputs":[{"name":"","type":"tuple","internalType":"struct QuiverPayManager.Node","components":[{"name":"stakedETH","type":"uint256","internalType":"uint256"},{"name":"transactionCount","type":"uint256","internalType":"uint256"},{"name":"lifetimeEarning","type":"uint256","internalType":"uint256"}]}],"stateMutability":"view"},{"type":"function","name":"getNodeBalance","inputs":[],"outputs":[{"name":"","type":"uint256","internalType":"uint256"}],"stateMutability":"view"},{"type":"function","name":"getNodeInfo","inputs":[{"name":"node","type":"address","internalType":"address"}],"outputs":[{"name":"stakedETH","type":"uint256","internalType":"uint256"},{"name":"txCount","type":"uint256","internalType":"uint256"},{"name":"lifeEarning","type":"uint256","internalType":"uint256"}],"stateMutability":"view"},{"type":"function","name":"getOrder","inputs":[{"name":"orderId","type":"uint256","internalType":"uint256"}],"outputs":[{"name":"","type":"tuple","internalType":"struct QuiverPayManager.Order","components":[{"name":"user","type":"address","internalType":"address"},{"name":"amount","type":"uint256","internalType":"uint256"},{"name":"fulfilled","type":"bool","internalType":"bool"},{"name":"refunded","type":"bool","internalType":"bool"},{"name":"orderType","type":"string","internalType":"string"}]}],"stateMutability":"view"},{"type":"function","name":"getSupportedToken","inputs":[],"outputs":[{"name":"","type":"address","internalType":"address"}],"stateMutability":"view"},{"type":"function","name":"getUserOrders","inputs":[{"name":"user","type":"address","internalType":"address"}],"outputs":[{"name":"","type":"uint256[]","internalType":"uint256[]"}],"stateMutability":"view"},{"type":"function","name":"getUserUSDCBalance","inputs":[{"name":"user","type":"address","internalType":"address"}],"outputs":[{"name":"","type":"uint256","internalType":"uint256"}],"stateMutability":"view"},{"type":"function","name":"nodes","inputs":[{"name":"","type":"address","internalType":"address"}],"outputs":[{"name":"stakedETH","type":"uint256","internalType":"uint256"},{"name":"transactionCount","type":"uint256","internalType":"uint256"},{"name":"lifetimeEarning","type":"uint256","internalType":"uint256"}],"stateMutability":"view"},{"type":"function","name":"orderCounter","inputs":[],"outputs":[{"name":"","type":"uint256","internalType":"uint256"}],"stateMutability":"view"},{"type":"function","name":"orders","inputs":[{"name":"","type":"uint256","internalType":"uint256"}],"outputs":[{"name":"user","type":"address","internalType":"address"},{"name":"amount","type":"uint256","internalType":"uint256"},{"name":"fulfilled","type":"bool","internalType":"bool"},{"name":"refunded","type":"bool","internalType":"bool"},{"name":"orderType","type":"string","internalType":"string"}],"stateMutability":"view"},{"type":"function","name":"owner","inputs":[],"outputs":[{"name":"","type":"address","internalType":"address"}],"stateMutability":"view"},{"type":"function","name":"refundUser","inputs":[{"name":"orderId","type":"uint256","internalType":"uint256"}],"outputs":[],"stateMutability":"nonpayable"},{"type":"function","name":"renounceOwnership","inputs":[],"outputs":[],"stateMutability":"nonpayable"},{"type":"function","name":"slash","inputs":[{"name":"node_addr","type":"address","internalType":"address"}],"outputs":[],"stateMutability":"nonpayable"},{"type":"function","name":"stablecoin","inputs":[],"outputs":[{"name":"","type":"address","internalType":"contract IERC20"}],"stateMutability":"view"},{"type":"function","name":"stake","inputs":[],"outputs":[],"stateMutability":"payable"},{"type":"function","name":"supportedToken","inputs":[],"outputs":[{"name":"","type":"address","internalType":"address"}],"stateMutability":"view"},{"type":"function","name":"takeProfit","inputs":[],"outputs":[],"stateMutability":"nonpayable"},{"type":"function","name":"transferOwnership","inputs":[{"name":"newOwner","type":"address","internalType":"address"}],"outputs":[],"stateMutability":"nonpayable"},{"type":"function","name":"unStake","inputs":[],"outputs":[],"stateMutability":"nonpayable"},{"type":"function","name":"userOrders","inputs":[{"name":"","type":"address","internalType":"address"},{"name":"","type":"uint256","internalType":"uint256"}],"outputs":[{"name":"","type":"uint256","internalType":"uint256"}],"stateMutability":"view"},{"type":"event","name":"NodeSlashed","inputs":[{"name":"slashed_node","type":"address","indexed":true,"internalType":"address"}],"anonymous":false},{"type":"event","name":"NodeStaked","inputs":[{"name":"node","type":"address","indexed":true,"internalType":"address"},{"name":"amount","type":"uint256","indexed":false,"internalType":"uint256"}],"anonymous":false},{"type":"event","name":"NodeUnStaked","inputs":[{"name":"node","type":"address","indexed":true,"internalType":"address"}],"anonymous":false},{"type":"event","name":"OrderCreated","inputs":[{"name":"orderId","type":"uint256","indexed":true,"internalType":"uint256"},{"name":"user","type":"address","indexed":true,"internalType":"address"},{"name":"amount","type":"uint256","indexed":false,"internalType":"uint256"},{"name":"billType","type":"string","indexed":false,"internalType":"string"}],"anonymous":false},{"type":"event","name":"OrderFulfilled","inputs":[{"name":"orderId","type":"uint256","indexed":true,"internalType":"uint256"},{"name":"node","type":"address","indexed":true,"internalType":"address"},{"name":"user","type":"address","indexed":true,"internalType":"address"}],"anonymous":false},{"type":"event","name":"OrderRefunded","inputs":[{"name":"orderId","type":"uint256","indexed":true,"internalType":"uint256"},{"name":"node","type":"address","indexed":true,"internalType":"address"},{"name":"user","type":"address","indexed":true,"internalType":"address"}],"anonymous":false},{"type":"event","name":"OwnershipTransferred","inputs":[{"name":"previousOwner","type":"address","indexed":true,"internalType":"address"},{"name":"newOwner","type":"address","indexed":true,"internalType":"address"}],"anonymous":false},{"type":"error","name":"MUstBeANodeOperator","inputs":[]},{"type":"error","name":"NotEnoughUSDC","inputs":[]},{"type":"error","name":"NotEnoughUSDCForFund","inputs":[]},{"type":"error","name":"OrderAlreadyProccess","inputs":[]},{"type":"error","name":"OwnableInvalidOwner","inputs":[{"name":"owner","type":"address","internalType":"address"}]},{"type":"error","name":"OwnableUnauthorizedAccount","inputs":[{"name":"account","type":"address","internalType":"address"}]},{"type":"error","name":"ReentrancyGuardReentrantCall","inputs":[]},{"type":"error","name":"TokenNotSupported","inputs":[]}],"bytecode":{"object":"0x60806040525f6004555f600555348015610017575f5ffd5b5060405161372638038061372683398181016040528101906100399190610268565b3360015f819055505f73ffffffffffffffffffffffffffffffffffffffff168173ffffffffffffffffffffffffffffffffffffffff16036100b1575f6040517f1e4fbdf70000000000000000000000000000000000000000000000000000000081526004016100a891906102a2565b60405180910390fd5b6100c08161014760201b60201c565b508060025f6101000a81548173ffffffffffffffffffffffffffffffffffffffff021916908373ffffffffffffffffffffffffffffffffffffffff1602179055508060035f6101000a81548173ffffffffffffffffffffffffffffffffffffffff021916908373ffffffffffffffffffffffffffffffffffffffff160217905550506102bb565b5f60015f9054906101000a900473ffffffffffffffffffffffffffffffffffffffff1690508160015f6101000a81548173ffffffffffffffffffffffffffffffffffffffff021916908373ffffffffffffffffffffffffffffffffffffffff1602179055508173ffffffffffffffffffffffffffffffffffffffff168173ffffffffffffffffffffffffffffffffffffffff167f8be0079c531659141344cd1fd0a4f28419497f9722a3daafe3b4186f6b6457e060405160405180910390a35050565b5f5ffd5b5f73ffffffffffffffffffffffffffffffffffffffff82169050919050565b5f6102378261020e565b9050919050565b6102478161022d565b8114610251575f5ffd5b50565b5f815190506102628161023e565b92915050565b5f6020828403121561027d5761027c61020a565b5b5f61028a84828501610254565b91505092915050565b61029c8161022d565b82525050565b5f6020820190506102b55f830184610293565b92915050565b61345e806102c85f395ff3fe60806040526004361061019f575f3560e01c806373cf575a116100eb578063b789bf5211610089578063db8ea62e11610063578063db8ea62e14610588578063e9cbd822146105b2578063eb47ea66146105dc578063f2fde38b14610618576101ae565b8063b789bf52146104fa578063c96be4cb14610524578063d09ef2411461054c576101ae565b80638da5cb5b116100c55780638da5cb5b146104505780639890220b1461047a578063a85c38ef14610490578063b2a06164146104d0576101ae565b806373cf575a146103d4578063743e92ee146103ea578063856652e914610414576101ae565b806350eb9add116101585780636311e830116101325780636311e8301461034457806363c69f081461036c57806370c10578146103a8578063715018a6146103be576101ae565b806350eb9add146102b257806352e9282a146102dc578063582115fb14610306576101ae565b80630e540b3a146101b25780630ee0599c146101ee5780631372e66714610218578063189a5a17146102405780631e35fed81461027e5780633a4b66f1146102a8576101ae565b366101ae576101ac610640565b005b5f5ffd5b3480156101bd575f5ffd5b506101d860048036038101906101d3919061242d565b6107a9565b6040516101e59190612496565b60405180910390f35b3480156101f9575f5ffd5b50610202610d0d565b60405161020f91906124ee565b60405180910390f35b348015610223575f5ffd5b5061023e60048036038101906102399190612507565b610d32565b005b34801561024b575f5ffd5b506102666004803603810190610261919061255c565b610fff565b60405161027593929190612587565b60405180910390f35b348015610289575f5ffd5b50610292611025565b60405161029f9190612496565b60405180910390f35b6102b0610640565b005b3480156102bd575f5ffd5b506102c6611070565b6040516102d39190612496565b60405180910390f35b3480156102e7575f5ffd5b506102f0611079565b6040516102fd9190612496565b60405180910390f35b348015610311575f5ffd5b5061032c6004803603810190610327919061255c565b61108e565b60405161033b93929190612587565b60405180910390f35b34801561034f575f5ffd5b5061036a60048036038101906103659190612507565b611115565b005b348015610377575f5ffd5b50610392600480360381019061038d919061255c565b6114c1565b60405161039f9190612673565b60405180910390f35b3480156103b3575f5ffd5b506103bc611554565b005b3480156103c9575f5ffd5b506103d2611642565b005b3480156103df575f5ffd5b506103e8611655565b005b3480156103f5575f5ffd5b506103fe6117f8565b60405161040b91906126d3565b60405180910390f35b34801561041f575f5ffd5b5061043a600480360381019061043591906126ec565b61186a565b6040516104479190612496565b60405180910390f35b34801561045b575f5ffd5b50610464611895565b60405161047191906124ee565b60405180910390f35b348015610485575f5ffd5b5061048e6118bd565b005b34801561049b575f5ffd5b506104b660048036038101906104b19190612507565b611aa8565b6040516104c79594939291906127a4565b60405180910390f35b3480156104db575f5ffd5b506104e4611b98565b6040516104f191906124ee565b60405180910390f35b348015610505575f5ffd5b5061050e611bc0565b60405161051b9190612496565b60405180910390f35b34801561052f575f5ffd5b5061054a6004803603810190610545919061255c565b611bc6565b005b348015610557575f5ffd5b50610572600480360381019061056d9190612507565b611d24565b60405161057f91906128d5565b60405180910390f35b348015610593575f5ffd5b5061059c611e72565b6040516105a99190612496565b60405180910390f35b3480156105bd575f5ffd5b506105c6611e78565b6040516105d39190612950565b60405180910390f35b3480156105e7575f5ffd5b5061060260048036038101906105fd919061255c565b611e9d565b60405161060f9190612496565b60405180910390f35b348015610623575f5ffd5b5061063e6004803603810190610639919061255c565b611f3e565b005b5f3411610682576040517f08c379a0000000000000000000000000000000000000000000000000000000008152600401610679906129b3565b60405180910390fd5b5f60085f3373ffffffffffffffffffffffffffffffffffffffff1673ffffffffffffffffffffffffffffffffffffffff1681526020019081526020015f205f01541115610704576040517f08c379a00000000000000000000000000000000000000000000000000000000081526004016106fb90612a1b565b60405180910390fd5b3460085f3373ffffffffffffffffffffffffffffffffffffffff1673ffffffffffffffffffffffffffffffffffffffff1681526020019081526020015f205f015f8282546107529190612a66565b925050819055503373ffffffffffffffffffffffffffffffffffffffff167ff02b9c90d1a12278c9244be1ddc794b15f8a3b9d50cf085ad7711683c0f9a0903460405161079f9190612496565b60405180910390a2565b5f6107b2611fc2565b5f83116107f4576040517f08c379a00000000000000000000000000000000000000000000000000000000081526004016107eb90612ae3565b60405180910390fd5b5f60025f9054906101000a900473ffffffffffffffffffffffffffffffffffffffff1673ffffffffffffffffffffffffffffffffffffffff1663dd62ed3e33306040518363ffffffff1660e01b8152600401610851929190612b01565b602060405180830381865afa15801561086c573d5f5f3e3d5ffd5b505050506040513d601f19601f820116820180604052508101906108909190612b3c565b9050838110156108d5576040517f08c379a00000000000000000000000000000000000000000000000000000000081526004016108cc90612bb1565b60405180910390fd5b61097760025f9054906101000a900473ffffffffffffffffffffffffffffffffffffffff1673ffffffffffffffffffffffffffffffffffffffff166370a08231336040518263ffffffff1660e01b815260040161093291906124ee565b602060405180830381865afa15801561094d573d5f5f3e3d5ffd5b505050506040513d601f19601f820116820180604052508101906109719190612b3c565b85612006565b8360025f9054906101000a900473ffffffffffffffffffffffffffffffffffffffff1673ffffffffffffffffffffffffffffffffffffffff166370a08231336040518263ffffffff1660e01b81526004016109d291906124ee565b602060405180830381865afa1580156109ed573d5f5f3e3d5ffd5b505050506040513d601f19601f82011682018060405250810190610a119190612b3c565b1015610a49576040517ff428bbf400000000000000000000000000000000000000000000000000000000815260040160405180910390fd5b60025f9054906101000a900473ffffffffffffffffffffffffffffffffffffffff1673ffffffffffffffffffffffffffffffffffffffff166323b872dd3330876040518463ffffffff1660e01b8152600401610aa793929190612bcf565b6020604051808303815f875af1158015610ac3573d5f5f3e3d5ffd5b505050506040513d601f19601f82011682018060405250810190610ae79190612c2e565b610b26576040517f08c379a0000000000000000000000000000000000000000000000000000000008152600401610b1d90612ca3565b60405180910390fd5b6040518060a001604052803373ffffffffffffffffffffffffffffffffffffffff1681526020018581526020015f151581526020015f151581526020018481525060075f60065481526020019081526020015f205f820151815f015f6101000a81548173ffffffffffffffffffffffffffffffffffffffff021916908373ffffffffffffffffffffffffffffffffffffffff160217905550602082015181600101556040820151816002015f6101000a81548160ff02191690831515021790555060608201518160020160016101000a81548160ff0219169083151502179055506080820151816003019081610c1c9190612eb5565b5090505060095f3373ffffffffffffffffffffffffffffffffffffffff1673ffffffffffffffffffffffffffffffffffffffff1681526020019081526020015f20600654908060018154018082558091505060019003905f5260205f20015f90919091909150553373ffffffffffffffffffffffffffffffffffffffff166006547fa1e197cb646bdb1f0be1243655bcfebed2ccd3adca8d37b27926ecbcddea300a8686604051610cce929190612f84565b60405180910390a360065f815480929190610ce890612fb2565b91905055506001600654610cfc9190612ff9565b915050610d076120a2565b92915050565b60035f9054906101000a900473ffffffffffffffffffffffffffffffffffffffff1681565b610d3a611fc2565b5f60075f8381526020019081526020015f206040518060a00160405290815f82015f9054906101000a900473ffffffffffffffffffffffffffffffffffffffff1673ffffffffffffffffffffffffffffffffffffffff1673ffffffffffffffffffffffffffffffffffffffff16815260200160018201548152602001600282015f9054906101000a900460ff161515151581526020016002820160019054906101000a900460ff16151515158152602001600382018054610dfa90612cee565b80601f0160208091040260200160405190810160405280929190818152602001828054610e2690612cee565b8015610e715780601f10610e4857610100808354040283529160200191610e71565b820191905f5260205f20905b815481529060010190602001808311610e5457829003601f168201915b50505050508152505090505f60085f3373ffffffffffffffffffffffffffffffffffffffff1673ffffffffffffffffffffffffffffffffffffffff1681526020019081526020015f205f015411610ef4576040517fb1f7fb2800000000000000000000000000000000000000000000000000000000815260040160405180910390fd5b8060400151158015610f0857508060600151155b610f3e576040517f21e6c18100000000000000000000000000000000000000000000000000000000815260040160405180910390fd5b5f620186a090505f61c35090508082610f579190612a66565b836020015110610f93576040517f37be395200000000000000000000000000000000000000000000000000000000815260040160405180910390fd5b825f015173ffffffffffffffffffffffffffffffffffffffff163373ffffffffffffffffffffffffffffffffffffffff16857f31bc90d7bd340d05db7e99d9446a2e8383813730669ff654e0e280f4e4db758960405160405180910390a4505050610ffc6120a2565b50565b6008602052805f5260405f205f91509050805f0154908060010154908060020154905083565b5f5f60085f3373ffffffffffffffffffffffffffffffffffffffff1673ffffffffffffffffffffffffffffffffffffffff1681526020019081526020015f209050805f015491505090565b5f600454905090565b5f60016006546110899190612ff9565b905090565b5f5f5f5f60085f8673ffffffffffffffffffffffffffffffffffffffff1673ffffffffffffffffffffffffffffffffffffffff1681526020019081526020015f206040518060600160405290815f8201548152602001600182015481526020016002820154815250509050805f015181602001518260400151935093509350509193909250565b5f60075f8381526020019081526020015f2090505f60085f3373ffffffffffffffffffffffffffffffffffffffff1673ffffffffffffffffffffffffffffffffffffffff1681526020019081526020015f205f0154116111aa576040517f08c379a00000000000000000000000000000000000000000000000000000000081526004016111a19061309c565b60405180910390fd5b806002015f9054906101000a900460ff161580156111d757508060020160019054906101000a900460ff16155b611216576040517f08c379a000000000000000000000000000000000000000000000000000000000815260040161120d90613104565b60405180910390fd5b5f61c35090508082600101541015611263576040517f08c379a000000000000000000000000000000000000000000000000000000000815260040161125a90613192565b60405180910390fd5b80826001015f8282546112769190612ff9565b925050819055508060045f82825461128e9190612a66565b925050819055506001826002015f6101000a81548160ff02191690831515021790555060085f3373ffffffffffffffffffffffffffffffffffffffff1673ffffffffffffffffffffffffffffffffffffffff1681526020019081526020015f206001015f81548092919061130190612fb2565b9190505550816001015460085f3373ffffffffffffffffffffffffffffffffffffffff1673ffffffffffffffffffffffffffffffffffffffff1681526020019081526020015f206002015f8282546113599190612a66565b9250508190555060025f9054906101000a900473ffffffffffffffffffffffffffffffffffffffff1673ffffffffffffffffffffffffffffffffffffffff1663a9059cbb3384600101546040518363ffffffff1660e01b81526004016113c09291906131b0565b6020604051808303815f875af11580156113dc573d5f5f3e3d5ffd5b505050506040513d601f19601f820116820180604052508101906114009190612c2e565b61143f576040517f08c379a000000000000000000000000000000000000000000000000000000000815260040161143690613221565b60405180910390fd5b815f015f9054906101000a900473ffffffffffffffffffffffffffffffffffffffff1673ffffffffffffffffffffffffffffffffffffffff163373ffffffffffffffffffffffffffffffffffffffff16847f404661ead0236174a7df940d1b816b818801dc781a3f39a698231f0483349ee160405160405180910390a4505050565b606060095f8373ffffffffffffffffffffffffffffffffffffffff1673ffffffffffffffffffffffffffffffffffffffff1681526020019081526020015f2080548060200260200160405190810160405280929190818152602001828054801561154857602002820191905f5260205f20905b815481526020019060010190808311611534575b50505050509050919050565b61155c6120ab565b5f60048190555060025f9054906101000a900473ffffffffffffffffffffffffffffffffffffffff1673ffffffffffffffffffffffffffffffffffffffff1663a9059cbb336004546040518363ffffffff1660e01b81526004016115c19291906131b0565b6020604051808303815f875af11580156115dd573d5f5f3e3d5ffd5b505050506040513d601f19601f820116820180604052508101906116019190612c2e565b611640576040517f08c379a000000000000000000000000000000000000000000000000000000000815260040161163790613289565b60405180910390fd5b565b61164a6120ab565b6116535f612132565b565b5f60085f3373ffffffffffffffffffffffffffffffffffffffff1673ffffffffffffffffffffffffffffffffffffffff1681526020019081526020015f205f0154036116d6576040517f08c379a00000000000000000000000000000000000000000000000000000000081526004016116cd906129b3565b60405180910390fd5b5f60085f3373ffffffffffffffffffffffffffffffffffffffff1673ffffffffffffffffffffffffffffffffffffffff1681526020019081526020015f205f015490508060085f3373ffffffffffffffffffffffffffffffffffffffff1673ffffffffffffffffffffffffffffffffffffffff1681526020019081526020015f205f015f8282546117679190612ff9565b925050819055503373ffffffffffffffffffffffffffffffffffffffff166108fc8290811502906040515f60405180830381858888f193505050501580156117b1573d5f5f3e3d5ffd5b503373ffffffffffffffffffffffffffffffffffffffff167f4cd07c005e99d10c2c002206c38b1f384d0368325026dddb87eae65b94d0dd6f60405160405180910390a250565b611800612240565b60085f3373ffffffffffffffffffffffffffffffffffffffff1673ffffffffffffffffffffffffffffffffffffffff1681526020019081526020015f206040518060600160405290815f820154815260200160018201548152602001600282015481525050905090565b6009602052815f5260405f208181548110611883575f80fd5b905f5260205f20015f91509150505481565b5f60015f9054906101000a900473ffffffffffffffffffffffffffffffffffffffff16905090565b6118c56120ab565b5f4790505f81111561191d576118d9611895565b73ffffffffffffffffffffffffffffffffffffffff166108fc8290811502906040515f60405180830381858888f1935050505015801561191b573d5f5f3e3d5ffd5b505b5f60025f9054906101000a900473ffffffffffffffffffffffffffffffffffffffff1673ffffffffffffffffffffffffffffffffffffffff166370a08231306040518263ffffffff1660e01b815260040161197891906124ee565b602060405180830381865afa158015611993573d5f5f3e3d5ffd5b505050506040513d601f19601f820116820180604052508101906119b79190612b3c565b90505f811115611aa45760025f9054906101000a900473ffffffffffffffffffffffffffffffffffffffff1673ffffffffffffffffffffffffffffffffffffffff1663a9059cbb611a06611895565b836040518363ffffffff1660e01b8152600401611a249291906131b0565b6020604051808303815f875af1158015611a40573d5f5f3e3d5ffd5b505050506040513d601f19601f82011682018060405250810190611a649190612c2e565b611aa3576040517f08c379a0000000000000000000000000000000000000000000000000000000008152600401611a9a906132f1565b60405180910390fd5b5b5050565b6007602052805f5260405f205f91509050805f015f9054906101000a900473ffffffffffffffffffffffffffffffffffffffff1690806001015490806002015f9054906101000a900460ff16908060020160019054906101000a900460ff1690806003018054611b1790612cee565b80601f0160208091040260200160405190810160405280929190818152602001828054611b4390612cee565b8015611b8e5780601f10611b6557610100808354040283529160200191611b8e565b820191905f5260205f20905b815481529060010190602001808311611b7157829003601f168201915b5050505050905085565b5f60035f9054906101000a900473ffffffffffffffffffffffffffffffffffffffff16905090565b60065481565b611bce6120ab565b5f60085f3373ffffffffffffffffffffffffffffffffffffffff1673ffffffffffffffffffffffffffffffffffffffff1681526020019081526020015f205f015411611c4f576040517f08c379a0000000000000000000000000000000000000000000000000000000008152600401611c4690613359565b60405180910390fd5b600260085f3373ffffffffffffffffffffffffffffffffffffffff1673ffffffffffffffffffffffffffffffffffffffff1681526020019081526020015f205f0154611c9b91906133a4565b60085f3373ffffffffffffffffffffffffffffffffffffffff1673ffffffffffffffffffffffffffffffffffffffff1681526020019081526020015f205f01819055508073ffffffffffffffffffffffffffffffffffffffff167f29f3a9a9c7f6d4074ec8817742795e031d525ab8fe33b05ee339002580ef3a6460405160405180910390a250565b611d2c61225e565b60075f8381526020019081526020015f206040518060a00160405290815f82015f9054906101000a900473ffffffffffffffffffffffffffffffffffffffff1673ffffffffffffffffffffffffffffffffffffffff1673ffffffffffffffffffffffffffffffffffffffff16815260200160018201548152602001600282015f9054906101000a900460ff161515151581526020016002820160019054906101000a900460ff16151515158152602001600382018054611deb90612cee565b80601f0160208091040260200160405190810160405280929190818152602001828054611e1790612cee565b8015611e625780601f10611e3957610100808354040283529160200191611e62565b820191905f5260205f20905b815481529060010190602001808311611e4557829003601f168201915b5050505050815250509050919050565b60045481565b60025f9054906101000a900473ffffffffffffffffffffffffffffffffffffffff1681565b5f60025f9054906101000a900473ffffffffffffffffffffffffffffffffffffffff1673ffffffffffffffffffffffffffffffffffffffff166370a08231836040518263ffffffff1660e01b8152600401611ef891906124ee565b602060405180830381865afa158015611f13573d5f5f3e3d5ffd5b505050506040513d601f19601f82011682018060405250810190611f379190612b3c565b9050919050565b611f466120ab565b5f73ffffffffffffffffffffffffffffffffffffffff168173ffffffffffffffffffffffffffffffffffffffff1603611fb6575f6040517f1e4fbdf7000000000000000000000000000000000000000000000000000000008152600401611fad91906124ee565b60405180910390fd5b611fbf81612132565b50565b60025f5403611ffd576040517f3ee5aeb500000000000000000000000000000000000000000000000000000000815260040160405180910390fd5b60025f81905550565b61209e828260405160240161201c9291906133d4565b6040516020818303038152906040527ff666715a000000000000000000000000000000000000000000000000000000007bffffffffffffffffffffffffffffffffffffffffffffffffffffffff19166020820180517bffffffffffffffffffffffffffffffffffffffffffffffffffffffff83818316178352505050506121f5565b5050565b60015f81905550565b6120b361220f565b73ffffffffffffffffffffffffffffffffffffffff166120d1611895565b73ffffffffffffffffffffffffffffffffffffffff1614612130576120f461220f565b6040517f118cdaa700000000000000000000000000000000000000000000000000000000815260040161212791906124ee565b60405180910390fd5b565b5f60015f9054906101000a900473ffffffffffffffffffffffffffffffffffffffff1690508160015f6101000a81548173ffffffffffffffffffffffffffffffffffffffff021916908373ffffffffffffffffffffffffffffffffffffffff1602179055508173ffffffffffffffffffffffffffffffffffffffff168173ffffffffffffffffffffffffffffffffffffffff167f8be0079c531659141344cd1fd0a4f28419497f9722a3daafe3b4186f6b6457e060405160405180910390a35050565b61220c81612204612216612235565b63ffffffff16565b50565b5f33905090565b5f6a636f6e736f6c652e6c6f6790505f5f835160208501845afa505050565b6122a3819050919050565b60405180606001604052805f81526020015f81526020015f81525090565b6040518060a001604052805f73ffffffffffffffffffffffffffffffffffffffff1681526020015f81526020015f151581526020015f15158152602001606081525090565b6122ab6133fb565b565b5f604051905090565b5f5ffd5b5f5ffd5b5f819050919050565b6122d0816122be565b81146122da575f5ffd5b50565b5f813590506122eb816122c7565b92915050565b5f5ffd5b5f5ffd5b5f601f19601f8301169050919050565b7f4e487b71000000000000000000000000000000000000000000000000000000005f52604160045260245ffd5b61233f826122f9565b810181811067ffffffffffffffff8211171561235e5761235d612309565b5b80604052505050565b5f6123706122ad565b905061237c8282612336565b919050565b5f67ffffffffffffffff82111561239b5761239a612309565b5b6123a4826122f9565b9050602081019050919050565b828183375f83830152505050565b5f6123d16123cc84612381565b612367565b9050828152602081018484840111156123ed576123ec6122f5565b5b6123f88482856123b1565b509392505050565b5f82601f830112612414576124136122f1565b5b81356124248482602086016123bf565b91505092915050565b5f5f60408385031215612443576124426122b6565b5b5f612450858286016122dd565b925050602083013567ffffffffffffffff811115612471576124706122ba565b5b61247d85828601612400565b9150509250929050565b612490816122be565b82525050565b5f6020820190506124a95f830184612487565b92915050565b5f73ffffffffffffffffffffffffffffffffffffffff82169050919050565b5f6124d8826124af565b9050919050565b6124e8816124ce565b82525050565b5f6020820190506125015f8301846124df565b92915050565b5f6020828403121561251c5761251b6122b6565b5b5f612529848285016122dd565b91505092915050565b61253b816124ce565b8114612545575f5ffd5b50565b5f8135905061255681612532565b92915050565b5f60208284031215612571576125706122b6565b5b5f61257e84828501612548565b91505092915050565b5f60608201905061259a5f830186612487565b6125a76020830185612487565b6125b46040830184612487565b949350505050565b5f81519050919050565b5f82825260208201905092915050565b5f819050602082019050919050565b6125ee816122be565b82525050565b5f6125ff83836125e5565b60208301905092915050565b5f602082019050919050565b5f612621826125bc565b61262b81856125c6565b9350612636836125d6565b805f5b8381101561266657815161264d88826125f4565b97506126588361260b565b925050600181019050612639565b5085935050505092915050565b5f6020820190508181035f83015261268b8184612617565b905092915050565b606082015f8201516126a75f8501826125e5565b5060208201516126ba60208501826125e5565b5060408201516126cd60408501826125e5565b50505050565b5f6060820190506126e65f830184612693565b92915050565b5f5f60408385031215612702576127016122b6565b5b5f61270f85828601612548565b9250506020612720858286016122dd565b9150509250929050565b5f8115159050919050565b61273e8161272a565b82525050565b5f81519050919050565b5f82825260208201905092915050565b8281835e5f83830152505050565b5f61277682612744565b612780818561274e565b935061279081856020860161275e565b612799816122f9565b840191505092915050565b5f60a0820190506127b75f8301886124df565b6127c46020830187612487565b6127d16040830186612735565b6127de6060830185612735565b81810360808301526127f0818461276c565b90509695505050505050565b612805816124ce565b82525050565b6128148161272a565b82525050565b5f82825260208201905092915050565b5f61283482612744565b61283e818561281a565b935061284e81856020860161275e565b612857816122f9565b840191505092915050565b5f60a083015f8301516128775f8601826127fc565b50602083015161288a60208601826125e5565b50604083015161289d604086018261280b565b5060608301516128b0606086018261280b565b50608083015184820360808601526128c8828261282a565b9150508091505092915050565b5f6020820190508181035f8301526128ed8184612862565b905092915050565b5f819050919050565b5f61291861291361290e846124af565b6128f5565b6124af565b9050919050565b5f612929826128fe565b9050919050565b5f61293a8261291f565b9050919050565b61294a81612930565b82525050565b5f6020820190506129635f830184612941565b92915050565b7f4d757374207374616b65204554480000000000000000000000000000000000005f82015250565b5f61299d600e8361274e565b91506129a882612969565b602082019050919050565b5f6020820190508181035f8301526129ca81612991565b9050919050565b7f416c7265616479207374616b6564207769746820746869732077616c6c6574005f82015250565b5f612a05601f8361274e565b9150612a10826129d1565b602082019050919050565b5f6020820190508181035f830152612a32816129f9565b9050919050565b7f4e487b71000000000000000000000000000000000000000000000000000000005f52601160045260245ffd5b5f612a70826122be565b9150612a7b836122be565b9250828201905080821115612a9357612a92612a39565b5b92915050565b7f416d6f756e74206d7573742062652067726561746572207468616e20300000005f82015250565b5f612acd601d8361274e565b9150612ad882612a99565b602082019050919050565b5f6020820190508181035f830152612afa81612ac1565b9050919050565b5f604082019050612b145f8301856124df565b612b2160208301846124df565b9392505050565b5f81519050612b36816122c7565b92915050565b5f60208284031215612b5157612b506122b6565b5b5f612b5e84828501612b28565b91505092915050565b7f496e73756666696369656e7420616c6c6f77616e6365000000000000000000005f82015250565b5f612b9b60168361274e565b9150612ba682612b67565b602082019050919050565b5f6020820190508181035f830152612bc881612b8f565b9050919050565b5f606082019050612be25f8301866124df565b612bef60208301856124df565b612bfc6040830184612487565b949350505050565b612c0d8161272a565b8114612c17575f5ffd5b50565b5f81519050612c2881612c04565b92915050565b5f60208284031215612c4357612c426122b6565b5b5f612c5084828501612c1a565b91505092915050565b7f5472616e73666572206661696c656400000000000000000000000000000000005f82015250565b5f612c8d600f8361274e565b9150612c9882612c59565b602082019050919050565b5f6020820190508181035f830152612cba81612c81565b9050919050565b7f4e487b71000000000000000000000000000000000000000000000000000000005f52602260045260245ffd5b5f6002820490506001821680612d0557607f821691505b602082108103612d1857612d17612cc1565b5b50919050565b5f819050815f5260205f209050919050565b5f6020601f8301049050919050565b5f82821b905092915050565b5f60088302612d7a7fffffffffffffffffffffffffffffffffffffffffffffffffffffffffffffffff82612d3f565b612d848683612d3f565b95508019841693508086168417925050509392505050565b5f612db6612db1612dac846122be565b6128f5565b6122be565b9050919050565b5f819050919050565b612dcf83612d9c565b612de3612ddb82612dbd565b848454612d4b565b825550505050565b5f5f905090565b612dfa612deb565b612e05818484612dc6565b505050565b5b81811015612e2857612e1d5f82612df2565b600181019050612e0b565b5050565b601f821115612e6d57612e3e81612d1e565b612e4784612d30565b81016020851015612e56578190505b612e6a612e6285612d30565b830182612e0a565b50505b505050565b5f82821c905092915050565b5f612e8d5f1984600802612e72565b1980831691505092915050565b5f612ea58383612e7e565b9150826002028217905092915050565b612ebe82612744565b67ffffffffffffffff811115612ed757612ed6612309565b5b612ee18254612cee565b612eec828285612e2c565b5f60209050601f831160018114612f1d575f8415612f0b578287015190505b612f158582612e9a565b865550612f7c565b601f198416612f2b86612d1e565b5f5b82811015612f5257848901518255600182019150602085019450602081019050612f2d565b86831015612f6f5784890151612f6b601f891682612e7e565b8355505b6001600288020188555050505b505050505050565b5f604082019050612f975f830185612487565b8181036020830152612fa9818461276c565b90509392505050565b5f612fbc826122be565b91507fffffffffffffffffffffffffffffffffffffffffffffffffffffffffffffffff8203612fee57612fed612a39565b5b600182019050919050565b5f613003826122be565b915061300e836122be565b925082820390508181111561302657613025612a39565b5b92915050565b7f4d757374204265204e6f6465204f70657261746f72205374616b6520455448205f8201527f546f204265636f6d65204f6e6500000000000000000000000000000000000000602082015250565b5f613086602d8361274e565b91506130918261302c565b604082019050919050565b5f6020820190508181035f8301526130b38161307a565b9050919050565b7f4f7264657220616c72656164792070726f6365737365640000000000000000005f82015250565b5f6130ee60178361274e565b91506130f9826130ba565b602082019050919050565b5f6020820190508181035f83015261311b816130e2565b9050919050565b7f496e73756666696369656e742062616c616e636520746f20636f766572206e6f5f8201527f646520726566756e640000000000000000000000000000000000000000000000602082015250565b5f61317c60298361274e565b915061318782613122565b604082019050919050565b5f6020820190508181035f8301526131a981613170565b9050919050565b5f6040820190506131c35f8301856124df565b6131d06020830184612487565b9392505050565b7f4e6f6465206f70657261746f7220637265646974206661696c656400000000005f82015250565b5f61320b601b8361274e565b9150613216826131d7565b602082019050919050565b5f6020820190508181035f830152613238816131ff565b9050919050565b7f4e6f6465206f70657261746f7220726566756e64206661696c656400000000005f82015250565b5f613273601b8361274e565b915061327e8261323f565b602082019050919050565b5f6020820190508181035f8301526132a081613267565b9050919050565b7f55534443207472616e73666572206661696c65640000000000000000000000005f82015250565b5f6132db60148361274e565b91506132e6826132a7565b602082019050919050565b5f6020820190508181035f830152613308816132cf565b9050919050565b7f41646472657373206973206e6f742061204e6f646500000000000000000000005f82015250565b5f61334360158361274e565b915061334e8261330f565b602082019050919050565b5f6020820190508181035f83015261337081613337565b9050919050565b7f4e487b71000000000000000000000000000000000000000000000000000000005f52601260045260245ffd5b5f6133ae826122be565b91506133b9836122be565b9250826133c9576133c8613377565b5b828204905092915050565b5f6040820190506133e75f830185612487565b6133f46020830184612487565b9392505050565b7f4e487b71000000000000000000000000000000000000000000000000000000005f52605160045260245ffdfea26469706673582212207ecd17fb63d37783b679c4191fa612f2a46129e20ea119c027516f8e62b8331d64736f6c634300081d0033","linkReferences":{}},"methodIdentifiers":{"createOrder(uint256,string)":"0e540b3a","drain()":"9890220b","feeProfit()":"db8ea62e","fulfillOrder(uint256)":"6311e830","getCurrentOrderId()":"52e9282a","getFeeProfit()":"50eb9add","getNode()":"743e92ee","getNodeBalance()":"1e35fed8","getNodeInfo(address)":"582115fb","getOrder(uint256)":"d09ef241","getSupportedToken()":"b2a06164","getUserOrders(address)":"63c69f08","getUserUSDCBalance(address)":"eb47ea66","nodes(address)":"189a5a17","orderCounter()":"b789bf52","orders(uint256)":"a85c38ef","owner()":"8da5cb5b","refundUser(uint256)":"1372e667","renounceOwnership()":"715018a6","slash(address)":"c96be4cb","stablecoin()":"e9cbd822","stake()":"3a4b66f1","supportedToken()":"0ee0599c","takeProfit()":"70c10578","transferOwnership(address)":"f2fde38b","unStake()":"73cf575a","userOrders(address,uint256)":"856652e9"},"id":29}