{"abi":[{"type":"constructor","inputs":[{"name":"_stablecoin","type":"address","internalType":"address"}],"stateMutability":"nonpayable"},{"type":"receive","stateMutability":"payable"},{"type":"function","name":"createOrder","inputs":[{"name":"amount","type":"uint256","internalType":"uint256"},{"name":"orderType","type":"string","internalType":"string"}],"outputs":[{"name":"","type":"uint256","internalType":"uint256"}],"stateMutability":"nonpayable"},{"type":"function","name":"fulfillOrder","inputs":[{"name":"orderId","type":"uint256","internalType":"uint256"}],"outputs":[],"stateMutability":"nonpayable"},{"type":"function","name":"getNode","inputs":[],"outputs":[{"name":"","type":"tuple","internalType":"struct QuiverPayManager.Node","components":[{"name":"stakedETH","type":"uint256","internalType":"uint256"},{"name":"transactionCount","type":"uint256","internalType":"uint256"}]}],"stateMutability":"view"},{"type":"function","name":"getNodeBalance","inputs":[],"outputs":[{"name":"","type":"uint256","internalType":"uint256"}],"stateMutability":"view"},{"type":"function","name":"getNodeInfo","inputs":[{"name":"node","type":"address","internalType":"address"}],"outputs":[{"name":"stakedETH","type":"uint256","internalType":"uint256"},{"name":"txCount","type":"uint256","internalType":"uint256"}],"stateMutability":"view"},{"type":"function","name":"getOrder","inputs":[{"name":"orderId","type":"uint256","internalType":"uint256"}],"outputs":[{"name":"","type":"tuple","internalType":"struct QuiverPayManager.Order","components":[{"name":"user","type":"address","internalType":"address"},{"name":"amount","type":"uint256","internalType":"uint256"},{"name":"fulfilled","type":"bool","internalType":"bool"},{"name":"refunded","type":"bool","internalType":"bool"},{"name":"orderType","type":"string","internalType":"string"}]}],"stateMutability":"view"},{"type":"function","name":"getSupportedToken","inputs":[],"outputs":[{"name":"","type":"address","internalType":"address"}],"stateMutability":"view"},{"type":"function","name":"getUserOrders","inputs":[{"name":"user","type":"address","internalType":"address"}],"outputs":[{"name":"","type":"uint256[]","internalType":"uint256[]"}],"stateMutability":"view"},{"type":"function","name":"getUserUSDCBalance","inputs":[{"name":"user","type":"address","internalType":"address"}],"outputs":[{"name":"","type":"uint256","internalType":"uint256"}],"stateMutability":"view"},{"type":"function","name":"nodes","inputs":[{"name":"","type":"address","internalType":"address"}],"outputs":[{"name":"stakedETH","type":"uint256","internalType":"uint256"},{"name":"transactionCount","type":"uint256","internalType":"uint256"}],"stateMutability":"view"},{"type":"function","name":"orderCounter","inputs":[],"outputs":[{"name":"","type":"uint256","internalType":"uint256"}],"stateMutability":"view"},{"type":"function","name":"orders","inputs":[{"name":"","type":"uint256","internalType":"uint256"}],"outputs":[{"name":"user","type":"address","internalType":"address"},{"name":"amount","type":"uint256","internalType":"uint256"},{"name":"fulfilled","type":"bool","internalType":"bool"},{"name":"refunded","type":"bool","internalType":"bool"},{"name":"orderType","type":"string","internalType":"string"}],"stateMutability":"view"},{"type":"function","name":"owner","inputs":[],"outputs":[{"name":"","type":"address","internalType":"address"}],"stateMutability":"view"},{"type":"function","name":"refundUser","inputs":[{"name":"orderId","type":"uint256","internalType":"uint256"}],"outputs":[],"stateMutability":"nonpayable"},{"type":"function","name":"renounceOwnership","inputs":[],"outputs":[],"stateMutability":"nonpayable"},{"type":"function","name":"stablecoin","inputs":[],"outputs":[{"name":"","type":"address","internalType":"contract IERC20"}],"stateMutability":"view"},{"type":"function","name":"stake","inputs":[],"outputs":[],"stateMutability":"payable"},{"type":"function","name":"supportedToken","inputs":[],"outputs":[{"name":"","type":"address","internalType":"address"}],"stateMutability":"view"},{"type":"function","name":"transferOwnership","inputs":[{"name":"newOwner","type":"address","internalType":"address"}],"outputs":[],"stateMutability":"nonpayable"},{"type":"function","name":"unStake","inputs":[],"outputs":[],"stateMutability":"nonpayable"},{"type":"function","name":"userOrders","inputs":[{"name":"","type":"address","internalType":"address"},{"name":"","type":"uint256","internalType":"uint256"}],"outputs":[{"name":"","type":"uint256","internalType":"uint256"}],"stateMutability":"view"},{"type":"event","name":"NodeStaked","inputs":[{"name":"node","type":"address","indexed":true,"internalType":"address"},{"name":"amount","type":"uint256","indexed":false,"internalType":"uint256"}],"anonymous":false},{"type":"event","name":"NodeUnStaked","inputs":[{"name":"node","type":"address","indexed":true,"internalType":"address"}],"anonymous":false},{"type":"event","name":"OrderCreated","inputs":[{"name":"orderId","type":"uint256","indexed":true,"internalType":"uint256"},{"name":"user","type":"address","indexed":true,"internalType":"address"},{"name":"amount","type":"uint256","indexed":false,"internalType":"uint256"},{"name":"billType","type":"string","indexed":false,"internalType":"string"}],"anonymous":false},{"type":"event","name":"OrderFulfilled","inputs":[{"name":"orderId","type":"uint256","indexed":true,"internalType":"uint256"},{"name":"node","type":"address","indexed":true,"internalType":"address"},{"name":"user","type":"address","indexed":true,"internalType":"address"}],"anonymous":false},{"type":"event","name":"OrderRefunded","inputs":[{"name":"orderId","type":"uint256","indexed":true,"internalType":"uint256"},{"name":"node","type":"address","indexed":true,"internalType":"address"},{"name":"user","type":"address","indexed":true,"internalType":"address"}],"anonymous":false},{"type":"event","name":"OwnershipTransferred","inputs":[{"name":"previousOwner","type":"address","indexed":true,"internalType":"address"},{"name":"newOwner","type":"address","indexed":true,"internalType":"address"}],"anonymous":false},{"type":"error","name":"OwnableInvalidOwner","inputs":[{"name":"owner","type":"address","internalType":"address"}]},{"type":"error","name":"OwnableUnauthorizedAccount","inputs":[{"name":"account","type":"address","internalType":"address"}]},{"type":"error","name":"ReentrancyGuardReentrantCall","inputs":[]},{"type":"error","name":"TokenNotSupported","inputs":[]}],"bytecode":{"object":"0x608060405234801561000f575f5ffd5b50604051612c23380380612c2383398181016040528101906100319190610260565b3360015f819055505f73ffffffffffffffffffffffffffffffffffffffff168173ffffffffffffffffffffffffffffffffffffffff16036100a9575f6040517f1e4fbdf70000000000000000000000000000000000000000000000000000000081526004016100a0919061029a565b60405180910390fd5b6100b88161013f60201b60201c565b508060025f6101000a81548173ffffffffffffffffffffffffffffffffffffffff021916908373ffffffffffffffffffffffffffffffffffffffff1602179055508060035f6101000a81548173ffffffffffffffffffffffffffffffffffffffff021916908373ffffffffffffffffffffffffffffffffffffffff160217905550506102b3565b5f60015f9054906101000a900473ffffffffffffffffffffffffffffffffffffffff1690508160015f6101000a81548173ffffffffffffffffffffffffffffffffffffffff021916908373ffffffffffffffffffffffffffffffffffffffff1602179055508173ffffffffffffffffffffffffffffffffffffffff168173ffffffffffffffffffffffffffffffffffffffff167f8be0079c531659141344cd1fd0a4f28419497f9722a3daafe3b4186f6b6457e060405160405180910390a35050565b5f5ffd5b5f73ffffffffffffffffffffffffffffffffffffffff82169050919050565b5f61022f82610206565b9050919050565b61023f81610225565b8114610249575f5ffd5b50565b5f8151905061025a81610236565b92915050565b5f6020828403121561027557610274610202565b5b5f6102828482850161024c565b91505092915050565b61029481610225565b82525050565b5f6020820190506102ad5f83018461028b565b92915050565b612963806102c05f395ff3fe60806040526004361061012d575f3560e01c806373cf575a116100aa578063b2a061641161006e578063b2a06164146103dc578063b789bf5214610406578063d09ef24114610430578063e9cbd8221461046c578063eb47ea6614610496578063f2fde38b146104d25761013c565b806373cf575a146102f6578063743e92ee1461030c578063856652e9146103365780638da5cb5b14610372578063a85c38ef1461039c5761013c565b80633a4b66f1116100f15780633a4b66f114610235578063582115fb1461023f5780636311e8301461027c57806363c69f08146102a4578063715018a6146102e05761013c565b80630e540b3a146101405780630ee0599c1461017c5780631372e667146101a6578063189a5a17146101ce5780631e35fed81461020b5761013c565b3661013c5761013a6104fa565b005b5f5ffd5b34801561014b575f5ffd5b5061016660048036038101906101619190611afa565b610663565b6040516101739190611b63565b60405180910390f35b348015610187575f5ffd5b50610190610a53565b60405161019d9190611bbb565b60405180910390f35b3480156101b1575f5ffd5b506101cc60048036038101906101c79190611bd4565b610a78565b005b3480156101d9575f5ffd5b506101f460048036038101906101ef9190611c29565b610e75565b604051610202929190611c54565b60405180910390f35b348015610216575f5ffd5b5061021f610e95565b60405161022c9190611b63565b60405180910390f35b61023d6104fa565b005b34801561024a575f5ffd5b5061026560048036038101906102609190611c29565b610ee0565b604051610273929190611c54565b60405180910390f35b348015610287575f5ffd5b506102a2600480360381019061029d9190611bd4565b610f53565b005b3480156102af575f5ffd5b506102ca60048036038101906102c59190611c29565b6110c5565b6040516102d79190611d32565b60405180910390f35b3480156102eb575f5ffd5b506102f4611158565b005b348015610301575f5ffd5b5061030a61116b565b005b348015610317575f5ffd5b5061032061130e565b60405161032d9190611d7f565b60405180910390f35b348015610341575f5ffd5b5061035c60048036038101906103579190611d98565b611376565b6040516103699190611b63565b60405180910390f35b34801561037d575f5ffd5b506103866113a1565b6040516103939190611bbb565b60405180910390f35b3480156103a7575f5ffd5b506103c260048036038101906103bd9190611bd4565b6113c9565b6040516103d3959493929190611e50565b60405180910390f35b3480156103e7575f5ffd5b506103f06114b9565b6040516103fd9190611bbb565b60405180910390f35b348015610411575f5ffd5b5061041a6114e1565b6040516104279190611b63565b60405180910390f35b34801561043b575f5ffd5b5061045660048036038101906104519190611bd4565b6114e7565b6040516104639190611f81565b60405180910390f35b348015610477575f5ffd5b50610480611635565b60405161048d9190611ffc565b60405180910390f35b3480156104a1575f5ffd5b506104bc60048036038101906104b79190611c29565b61165a565b6040516104c99190611b63565b60405180910390f35b3480156104dd575f5ffd5b506104f860048036038101906104f39190611c29565b6116fb565b005b5f341161053c576040517f08c379a00000000000000000000000000000000000000000000000000000000081526004016105339061205f565b60405180910390fd5b5f60065f3373ffffffffffffffffffffffffffffffffffffffff1673ffffffffffffffffffffffffffffffffffffffff1681526020019081526020015f205f015411156105be576040517f08c379a00000000000000000000000000000000000000000000000000000000081526004016105b5906120c7565b60405180910390fd5b3460065f3373ffffffffffffffffffffffffffffffffffffffff1673ffffffffffffffffffffffffffffffffffffffff1681526020019081526020015f205f015f82825461060c9190612112565b925050819055503373ffffffffffffffffffffffffffffffffffffffff167ff02b9c90d1a12278c9244be1ddc794b15f8a3b9d50cf085ad7711683c0f9a090346040516106599190611b63565b60405180910390a2565b5f61066c61177f565b5f83116106ae576040517f08c379a00000000000000000000000000000000000000000000000000000000081526004016106a59061218f565b60405180910390fd5b5f60025f9054906101000a900473ffffffffffffffffffffffffffffffffffffffff1673ffffffffffffffffffffffffffffffffffffffff1663dd62ed3e33306040518363ffffffff1660e01b815260040161070b9291906121ad565b602060405180830381865afa158015610726573d5f5f3e3d5ffd5b505050506040513d601f19601f8201168201806040525081019061074a91906121e8565b90508381101561078f576040517f08c379a00000000000000000000000000000000000000000000000000000000081526004016107869061225d565b60405180910390fd5b60025f9054906101000a900473ffffffffffffffffffffffffffffffffffffffff1673ffffffffffffffffffffffffffffffffffffffff166323b872dd3330876040518463ffffffff1660e01b81526004016107ed9392919061227b565b6020604051808303815f875af1158015610809573d5f5f3e3d5ffd5b505050506040513d601f19601f8201168201806040525081019061082d91906122da565b61086c576040517f08c379a00000000000000000000000000000000000000000000000000000000081526004016108639061234f565b60405180910390fd5b6040518060a001604052803373ffffffffffffffffffffffffffffffffffffffff1681526020018581526020015f151581526020015f151581526020018481525060055f60045481526020019081526020015f205f820151815f015f6101000a81548173ffffffffffffffffffffffffffffffffffffffff021916908373ffffffffffffffffffffffffffffffffffffffff160217905550602082015181600101556040820151816002015f6101000a81548160ff02191690831515021790555060608201518160020160016101000a81548160ff02191690831515021790555060808201518160030190816109629190612561565b5090505060075f3373ffffffffffffffffffffffffffffffffffffffff1673ffffffffffffffffffffffffffffffffffffffff1681526020019081526020015f20600454908060018154018082558091505060019003905f5260205f20015f90919091909150553373ffffffffffffffffffffffffffffffffffffffff166004547fa1e197cb646bdb1f0be1243655bcfebed2ccd3adca8d37b27926ecbcddea300a8686604051610a14929190612630565b60405180910390a360045f815480929190610a2e9061265e565b91905055506001600454610a4291906126a5565b915050610a4d6117c3565b92915050565b60035f9054906101000a900473ffffffffffffffffffffffffffffffffffffffff1681565b610a8061177f565b5f60055f8381526020019081526020015f2090505f60065f3373ffffffffffffffffffffffffffffffffffffffff1673ffffffffffffffffffffffffffffffffffffffff1681526020019081526020015f205f015411610b15576040517f08c379a0000000000000000000000000000000000000000000000000000000008152600401610b0c90612722565b60405180910390fd5b806002015f9054906101000a900460ff16158015610b4257508060020160019054906101000a900460ff16155b610b81576040517f08c379a0000000000000000000000000000000000000000000000000000000008152600401610b789061278a565b60405180910390fd5b5f61c35090508082600101541015610bce576040517f08c379a0000000000000000000000000000000000000000000000000000000008152600401610bc590612818565b60405180910390fd5b80826001015f828254610be191906126a5565b925050819055505f8260010154905060025f9054906101000a900473ffffffffffffffffffffffffffffffffffffffff1673ffffffffffffffffffffffffffffffffffffffff1663a9059cbb845f015f9054906101000a900473ffffffffffffffffffffffffffffffffffffffff16836040518363ffffffff1660e01b8152600401610c6e929190612836565b6020604051808303815f875af1158015610c8a573d5f5f3e3d5ffd5b505050506040513d601f19601f82011682018060405250810190610cae91906122da565b610ced576040517f08c379a0000000000000000000000000000000000000000000000000000000008152600401610ce4906128a7565b60405180910390fd5b5f33905060025f9054906101000a900473ffffffffffffffffffffffffffffffffffffffff1673ffffffffffffffffffffffffffffffffffffffff1663a9059cbb82856040518363ffffffff1660e01b8152600401610d4d929190612836565b6020604051808303815f875af1158015610d69573d5f5f3e3d5ffd5b505050506040513d601f19601f82011682018060405250810190610d8d91906122da565b610dcc576040517f08c379a0000000000000000000000000000000000000000000000000000000008152600401610dc39061290f565b60405180910390fd5b60018460020160016101000a81548160ff021916908315150217905550835f015f9054906101000a900473ffffffffffffffffffffffffffffffffffffffff1673ffffffffffffffffffffffffffffffffffffffff163373ffffffffffffffffffffffffffffffffffffffff16867f31bc90d7bd340d05db7e99d9446a2e8383813730669ff654e0e280f4e4db758960405160405180910390a450505050610e726117c3565b50565b6006602052805f5260405f205f91509050805f0154908060010154905082565b5f5f60065f3373ffffffffffffffffffffffffffffffffffffffff1673ffffffffffffffffffffffffffffffffffffffff1681526020019081526020015f209050805f015491505090565b5f5f5f60065f8573ffffffffffffffffffffffffffffffffffffffff1673ffffffffffffffffffffffffffffffffffffffff1681526020019081526020015f206040518060400160405290815f82015481526020016001820154815250509050805f015181602001519250925050915091565b5f60055f8381526020019081526020015f209050806002015f9054906101000a900460ff16158015610f9457508060020160019054906101000a900460ff16155b610fd3576040517f08c379a0000000000000000000000000000000000000000000000000000000008152600401610fca9061278a565b60405180910390fd5b6001816002015f6101000a81548160ff02191690831515021790555060065f3373ffffffffffffffffffffffffffffffffffffffff1673ffffffffffffffffffffffffffffffffffffffff1681526020019081526020015f206001015f81548092919061103f9061265e565b9190505550805f015f9054906101000a900473ffffffffffffffffffffffffffffffffffffffff1673ffffffffffffffffffffffffffffffffffffffff163373ffffffffffffffffffffffffffffffffffffffff16837f404661ead0236174a7df940d1b816b818801dc781a3f39a698231f0483349ee160405160405180910390a45050565b606060075f8373ffffffffffffffffffffffffffffffffffffffff1673ffffffffffffffffffffffffffffffffffffffff1681526020019081526020015f2080548060200260200160405190810160405280929190818152602001828054801561114c57602002820191905f5260205f20905b815481526020019060010190808311611138575b50505050509050919050565b6111606117cc565b6111695f611853565b565b5f60065f3373ffffffffffffffffffffffffffffffffffffffff1673ffffffffffffffffffffffffffffffffffffffff1681526020019081526020015f205f0154036111ec576040517f08c379a00000000000000000000000000000000000000000000000000000000081526004016111e39061205f565b60405180910390fd5b5f60065f3373ffffffffffffffffffffffffffffffffffffffff1673ffffffffffffffffffffffffffffffffffffffff1681526020019081526020015f205f015490508060065f3373ffffffffffffffffffffffffffffffffffffffff1673ffffffffffffffffffffffffffffffffffffffff1681526020019081526020015f205f015f82825461127d91906126a5565b925050819055503373ffffffffffffffffffffffffffffffffffffffff166108fc8290811502906040515f60405180830381858888f193505050501580156112c7573d5f5f3e3d5ffd5b503373ffffffffffffffffffffffffffffffffffffffff167f4cd07c005e99d10c2c002206c38b1f384d0368325026dddb87eae65b94d0dd6f60405160405180910390a250565b61131661191d565b60065f3373ffffffffffffffffffffffffffffffffffffffff1673ffffffffffffffffffffffffffffffffffffffff1681526020019081526020015f206040518060400160405290815f8201548152602001600182015481525050905090565b6007602052815f5260405f20818154811061138f575f80fd5b905f5260205f20015f91509150505481565b5f60015f9054906101000a900473ffffffffffffffffffffffffffffffffffffffff16905090565b6005602052805f5260405f205f91509050805f015f9054906101000a900473ffffffffffffffffffffffffffffffffffffffff1690806001015490806002015f9054906101000a900460ff16908060020160019054906101000a900460ff16908060030180546114389061239a565b80601f01602080910402602001604051908101604052809291908181526020018280546114649061239a565b80156114af5780601f10611486576101008083540402835291602001916114af565b820191905f5260205f20905b81548152906001019060200180831161149257829003601f168201915b5050505050905085565b5f60035f9054906101000a900473ffffffffffffffffffffffffffffffffffffffff16905090565b60045481565b6114ef611935565b60055f8381526020019081526020015f206040518060a00160405290815f82015f9054906101000a900473ffffffffffffffffffffffffffffffffffffffff1673ffffffffffffffffffffffffffffffffffffffff1673ffffffffffffffffffffffffffffffffffffffff16815260200160018201548152602001600282015f9054906101000a900460ff161515151581526020016002820160019054906101000a900460ff161515151581526020016003820180546115ae9061239a565b80601f01602080910402602001604051908101604052809291908181526020018280546115da9061239a565b80156116255780601f106115fc57610100808354040283529160200191611625565b820191905f5260205f20905b81548152906001019060200180831161160857829003601f168201915b5050505050815250509050919050565b60025f9054906101000a900473ffffffffffffffffffffffffffffffffffffffff1681565b5f60025f9054906101000a900473ffffffffffffffffffffffffffffffffffffffff1673ffffffffffffffffffffffffffffffffffffffff166370a08231836040518263ffffffff1660e01b81526004016116b59190611bbb565b602060405180830381865afa1580156116d0573d5f5f3e3d5ffd5b505050506040513d601f19601f820116820180604052508101906116f491906121e8565b9050919050565b6117036117cc565b5f73ffffffffffffffffffffffffffffffffffffffff168173ffffffffffffffffffffffffffffffffffffffff1603611773575f6040517f1e4fbdf700000000000000000000000000000000000000000000000000000000815260040161176a9190611bbb565b60405180910390fd5b61177c81611853565b50565b60025f54036117ba576040517f3ee5aeb500000000000000000000000000000000000000000000000000000000815260040160405180910390fd5b60025f81905550565b60015f81905550565b6117d4611916565b73ffffffffffffffffffffffffffffffffffffffff166117f26113a1565b73ffffffffffffffffffffffffffffffffffffffff161461185157611815611916565b6040517f118cdaa70000000000000000000000000000000000000000000000000000000081526004016118489190611bbb565b60405180910390fd5b565b5f60015f9054906101000a900473ffffffffffffffffffffffffffffffffffffffff1690508160015f6101000a81548173ffffffffffffffffffffffffffffffffffffffff021916908373ffffffffffffffffffffffffffffffffffffffff1602179055508173ffffffffffffffffffffffffffffffffffffffff168173ffffffffffffffffffffffffffffffffffffffff167f8be0079c531659141344cd1fd0a4f28419497f9722a3daafe3b4186f6b6457e060405160405180910390a35050565b5f33905090565b60405180604001604052805f81526020015f81525090565b6040518060a001604052805f73ffffffffffffffffffffffffffffffffffffffff1681526020015f81526020015f151581526020015f15158152602001606081525090565b5f604051905090565b5f5ffd5b5f5ffd5b5f819050919050565b61199d8161198b565b81146119a7575f5ffd5b50565b5f813590506119b881611994565b92915050565b5f5ffd5b5f5ffd5b5f601f19601f8301169050919050565b7f4e487b71000000000000000000000000000000000000000000000000000000005f52604160045260245ffd5b611a0c826119c6565b810181811067ffffffffffffffff82111715611a2b57611a2a6119d6565b5b80604052505050565b5f611a3d61197a565b9050611a498282611a03565b919050565b5f67ffffffffffffffff821115611a6857611a676119d6565b5b611a71826119c6565b9050602081019050919050565b828183375f83830152505050565b5f611a9e611a9984611a4e565b611a34565b905082815260208101848484011115611aba57611ab96119c2565b5b611ac5848285611a7e565b509392505050565b5f82601f830112611ae157611ae06119be565b5b8135611af1848260208601611a8c565b91505092915050565b5f5f60408385031215611b1057611b0f611983565b5b5f611b1d858286016119aa565b925050602083013567ffffffffffffffff811115611b3e57611b3d611987565b5b611b4a85828601611acd565b9150509250929050565b611b5d8161198b565b82525050565b5f602082019050611b765f830184611b54565b92915050565b5f73ffffffffffffffffffffffffffffffffffffffff82169050919050565b5f611ba582611b7c565b9050919050565b611bb581611b9b565b82525050565b5f602082019050611bce5f830184611bac565b92915050565b5f60208284031215611be957611be8611983565b5b5f611bf6848285016119aa565b91505092915050565b611c0881611b9b565b8114611c12575f5ffd5b50565b5f81359050611c2381611bff565b92915050565b5f60208284031215611c3e57611c3d611983565b5b5f611c4b84828501611c15565b91505092915050565b5f604082019050611c675f830185611b54565b611c746020830184611b54565b9392505050565b5f81519050919050565b5f82825260208201905092915050565b5f819050602082019050919050565b611cad8161198b565b82525050565b5f611cbe8383611ca4565b60208301905092915050565b5f602082019050919050565b5f611ce082611c7b565b611cea8185611c85565b9350611cf583611c95565b805f5b83811015611d25578151611d0c8882611cb3565b9750611d1783611cca565b925050600181019050611cf8565b5085935050505092915050565b5f6020820190508181035f830152611d4a8184611cd6565b905092915050565b604082015f820151611d665f850182611ca4565b506020820151611d796020850182611ca4565b50505050565b5f604082019050611d925f830184611d52565b92915050565b5f5f60408385031215611dae57611dad611983565b5b5f611dbb85828601611c15565b9250506020611dcc858286016119aa565b9150509250929050565b5f8115159050919050565b611dea81611dd6565b82525050565b5f81519050919050565b5f82825260208201905092915050565b8281835e5f83830152505050565b5f611e2282611df0565b611e2c8185611dfa565b9350611e3c818560208601611e0a565b611e45816119c6565b840191505092915050565b5f60a082019050611e635f830188611bac565b611e706020830187611b54565b611e7d6040830186611de1565b611e8a6060830185611de1565b8181036080830152611e9c8184611e18565b90509695505050505050565b611eb181611b9b565b82525050565b611ec081611dd6565b82525050565b5f82825260208201905092915050565b5f611ee082611df0565b611eea8185611ec6565b9350611efa818560208601611e0a565b611f03816119c6565b840191505092915050565b5f60a083015f830151611f235f860182611ea8565b506020830151611f366020860182611ca4565b506040830151611f496040860182611eb7565b506060830151611f5c6060860182611eb7565b5060808301518482036080860152611f748282611ed6565b9150508091505092915050565b5f6020820190508181035f830152611f998184611f0e565b905092915050565b5f819050919050565b5f611fc4611fbf611fba84611b7c565b611fa1565b611b7c565b9050919050565b5f611fd582611faa565b9050919050565b5f611fe682611fcb565b9050919050565b611ff681611fdc565b82525050565b5f60208201905061200f5f830184611fed565b92915050565b7f4d757374207374616b65204554480000000000000000000000000000000000005f82015250565b5f612049600e83611dfa565b915061205482612015565b602082019050919050565b5f6020820190508181035f8301526120768161203d565b9050919050565b7f416c7265616479207374616b6564207769746820746869732077616c6c6574005f82015250565b5f6120b1601f83611dfa565b91506120bc8261207d565b602082019050919050565b5f6020820190508181035f8301526120de816120a5565b9050919050565b7f4e487b71000000000000000000000000000000000000000000000000000000005f52601160045260245ffd5b5f61211c8261198b565b91506121278361198b565b925082820190508082111561213f5761213e6120e5565b5b92915050565b7f416d6f756e74206d7573742062652067726561746572207468616e20300000005f82015250565b5f612179601d83611dfa565b915061218482612145565b602082019050919050565b5f6020820190508181035f8301526121a68161216d565b9050919050565b5f6040820190506121c05f830185611bac565b6121cd6020830184611bac565b9392505050565b5f815190506121e281611994565b92915050565b5f602082840312156121fd576121fc611983565b5b5f61220a848285016121d4565b91505092915050565b7f496e73756666696369656e7420616c6c6f77616e6365000000000000000000005f82015250565b5f612247601683611dfa565b915061225282612213565b602082019050919050565b5f6020820190508181035f8301526122748161223b565b9050919050565b5f60608201905061228e5f830186611bac565b61229b6020830185611bac565b6122a86040830184611b54565b949350505050565b6122b981611dd6565b81146122c3575f5ffd5b50565b5f815190506122d4816122b0565b92915050565b5f602082840312156122ef576122ee611983565b5b5f6122fc848285016122c6565b91505092915050565b7f5472616e73666572206661696c656400000000000000000000000000000000005f82015250565b5f612339600f83611dfa565b915061234482612305565b602082019050919050565b5f6020820190508181035f8301526123668161232d565b9050919050565b7f4e487b71000000000000000000000000000000000000000000000000000000005f52602260045260245ffd5b5f60028204905060018216806123b157607f821691505b6020821081036123c4576123c361236d565b5b50919050565b5f819050815f5260205f209050919050565b5f6020601f8301049050919050565b5f82821b905092915050565b5f600883026124267fffffffffffffffffffffffffffffffffffffffffffffffffffffffffffffffff826123eb565b61243086836123eb565b95508019841693508086168417925050509392505050565b5f61246261245d6124588461198b565b611fa1565b61198b565b9050919050565b5f819050919050565b61247b83612448565b61248f61248782612469565b8484546123f7565b825550505050565b5f5f905090565b6124a6612497565b6124b1818484612472565b505050565b5b818110156124d4576124c95f8261249e565b6001810190506124b7565b5050565b601f821115612519576124ea816123ca565b6124f3846123dc565b81016020851015612502578190505b61251661250e856123dc565b8301826124b6565b50505b505050565b5f82821c905092915050565b5f6125395f198460080261251e565b1980831691505092915050565b5f612551838361252a565b9150826002028217905092915050565b61256a82611df0565b67ffffffffffffffff811115612583576125826119d6565b5b61258d825461239a565b6125988282856124d8565b5f60209050601f8311600181146125c9575f84156125b7578287015190505b6125c18582612546565b865550612628565b601f1984166125d7866123ca565b5f5b828110156125fe578489015182556001820191506020850194506020810190506125d9565b8683101561261b5784890151612617601f89168261252a565b8355505b6001600288020188555050505b505050505050565b5f6040820190506126435f830185611b54565b81810360208301526126558184611e18565b90509392505050565b5f6126688261198b565b91507fffffffffffffffffffffffffffffffffffffffffffffffffffffffffffffffff820361269a576126996120e5565b5b600182019050919050565b5f6126af8261198b565b91506126ba8361198b565b92508282039050818111156126d2576126d16120e5565b5b92915050565b7f4d757374204265204e6f6465204f70657261746f7200000000000000000000005f82015250565b5f61270c601583611dfa565b9150612717826126d8565b602082019050919050565b5f6020820190508181035f83015261273981612700565b9050919050565b7f4f7264657220616c72656164792070726f6365737365640000000000000000005f82015250565b5f612774601783611dfa565b915061277f82612740565b602082019050919050565b5f6020820190508181035f8301526127a181612768565b9050919050565b7f496e73756666696369656e742062616c616e636520746f20636f766572206e6f5f8201527f646520726566756e640000000000000000000000000000000000000000000000602082015250565b5f612802602983611dfa565b915061280d826127a8565b604082019050919050565b5f6020820190508181035f83015261282f816127f6565b9050919050565b5f6040820190506128495f830185611bac565b6128566020830184611b54565b9392505050565b7f5573657220726566756e64206661696c656400000000000000000000000000005f82015250565b5f612891601283611dfa565b915061289c8261285d565b602082019050919050565b5f6020820190508181035f8301526128be81612885565b9050919050565b7f4e6f6465206f70657261746f7220726566756e64206661696c656400000000005f82015250565b5f6128f9601b83611dfa565b9150612904826128c5565b602082019050919050565b5f6020820190508181035f830152612926816128ed565b905091905056fea2646970667358221220dd5994512dc33f8855a4180270eae04932ec5d0b83b205c6194e7a1d8ff7e74a64736f6c634300081d0033","linkReferences":{}},"methodIdentifiers":{"createOrder(uint256,string)":"0e540b3a","fulfillOrder(uint256)":"6311e830","getNode()":"743e92ee","getNodeBalance()":"1e35fed8","getNodeInfo(address)":"582115fb","getOrder(uint256)":"d09ef241","getSupportedToken()":"b2a06164","getUserOrders(address)":"63c69f08","getUserUSDCBalance(address)":"eb47ea66","nodes(address)":"189a5a17","orderCounter()":"b789bf52","orders(uint256)":"a85c38ef","owner()":"8da5cb5b","refundUser(uint256)":"1372e667","renounceOwnership()":"715018a6","stablecoin()":"e9cbd822","stake()":"3a4b66f1","supportedToken()":"0ee0599c","transferOwnership(address)":"f2fde38b","unStake()":"73cf575a","userOrders(address,uint256)":"856652e9"},"id":34}