{"abi":[{"type":"constructor","inputs":[{"name":"_stablecoin","type":"address","internalType":"address"}],"stateMutability":"nonpayable"},{"type":"receive","stateMutability":"payable"},{"type":"function","name":"createOrder","inputs":[{"name":"amount","type":"uint256","internalType":"uint256"},{"name":"orderType","type":"string","internalType":"string"}],"outputs":[{"name":"","type":"uint256","internalType":"uint256"}],"stateMutability":"nonpayable"},{"type":"function","name":"drain","inputs":[],"outputs":[],"stateMutability":"nonpayable"},{"type":"function","name":"feeProfit","inputs":[],"outputs":[{"name":"","type":"uint256","internalType":"uint256"}],"stateMutability":"view"},{"type":"function","name":"fulfillOrder","inputs":[{"name":"orderId","type":"uint256","internalType":"uint256"}],"outputs":[],"stateMutability":"nonpayable"},{"type":"function","name":"getCurrentOrderId","inputs":[],"outputs":[{"name":"","type":"uint256","internalType":"uint256"}],"stateMutability":"view"},{"type":"function","name":"getFeeProfit","inputs":[],"outputs":[{"name":"","type":"uint256","internalType":"uint256"}],"stateMutability":"view"},{"type":"function","name":"getNode","inputs":[],"outputs":[{"name":"","type":"tuple","internalType":"struct QuiverPayManager.Node","components":[{"name":"stakedETH","type":"uint256","internalType":"uint256"},{"name":"transactionCount","type":"uint256","internalType":"uint256"},{"name":"lifetimeEarning","type":"uint256","internalType":"uint256"}]}],"stateMutability":"view"},{"type":"function","name":"getNodeBalance","inputs":[],"outputs":[{"name":"","type":"uint256","internalType":"uint256"}],"stateMutability":"view"},{"type":"function","name":"getNodeInfo","inputs":[{"name":"node","type":"address","internalType":"address"}],"outputs":[{"name":"stakedETH","type":"uint256","internalType":"uint256"},{"name":"txCount","type":"uint256","internalType":"uint256"},{"name":"lifeEarning","type":"uint256","internalType":"uint256"}],"stateMutability":"view"},{"type":"function","name":"getOrder","inputs":[{"name":"orderId","type":"uint256","internalType":"uint256"}],"outputs":[{"name":"","type":"tuple","internalType":"struct QuiverPayManager.Order","components":[{"name":"user","type":"address","internalType":"address"},{"name":"amount","type":"uint256","internalType":"uint256"},{"name":"fulfilled","type":"bool","internalType":"bool"},{"name":"refunded","type":"bool","internalType":"bool"},{"name":"orderType","type":"string","internalType":"string"}]}],"stateMutability":"view"},{"type":"function","name":"getSupportedToken","inputs":[],"outputs":[{"name":"","type":"address","internalType":"address"}],"stateMutability":"view"},{"type":"function","name":"getUSDCBal","inputs":[],"outputs":[{"name":"","type":"uint256","internalType":"uint256"}],"stateMutability":"view"},{"type":"function","name":"getUserOrders","inputs":[{"name":"user","type":"address","internalType":"address"}],"outputs":[{"name":"","type":"uint256[]","internalType":"uint256[]"}],"stateMutability":"view"},{"type":"function","name":"getUserUSDCBalance","inputs":[{"name":"user","type":"address","internalType":"address"}],"outputs":[{"name":"","type":"uint256","internalType":"uint256"}],"stateMutability":"view"},{"type":"function","name":"nodes","inputs":[{"name":"","type":"address","internalType":"address"}],"outputs":[{"name":"stakedETH","type":"uint256","internalType":"uint256"},{"name":"transactionCount","type":"uint256","internalType":"uint256"},{"name":"lifetimeEarning","type":"uint256","internalType":"uint256"}],"stateMutability":"view"},{"type":"function","name":"orderCounter","inputs":[],"outputs":[{"name":"","type":"uint256","internalType":"uint256"}],"stateMutability":"view"},{"type":"function","name":"orders","inputs":[{"name":"","type":"uint256","internalType":"uint256"}],"outputs":[{"name":"user","type":"address","internalType":"address"},{"name":"amount","type":"uint256","internalType":"uint256"},{"name":"fulfilled","type":"bool","internalType":"bool"},{"name":"refunded","type":"bool","internalType":"bool"},{"name":"orderType","type":"string","internalType":"string"}],"stateMutability":"view"},{"type":"function","name":"owner","inputs":[],"outputs":[{"name":"","type":"address","internalType":"address"}],"stateMutability":"view"},{"type":"function","name":"refundUser","inputs":[{"name":"orderId","type":"uint256","internalType":"uint256"}],"outputs":[],"stateMutability":"nonpayable"},{"type":"function","name":"renounceOwnership","inputs":[],"outputs":[],"stateMutability":"nonpayable"},{"type":"function","name":"slash","inputs":[{"name":"node_addr","type":"address","internalType":"address"}],"outputs":[],"stateMutability":"nonpayable"},{"type":"function","name":"slashedEthBal","inputs":[],"outputs":[{"name":"","type":"uint256","internalType":"uint256"}],"stateMutability":"view"},{"type":"function","name":"stablecoin","inputs":[],"outputs":[{"name":"","type":"address","internalType":"contract IERC20"}],"stateMutability":"view"},{"type":"function","name":"stake","inputs":[],"outputs":[],"stateMutability":"payable"},{"type":"function","name":"supportedToken","inputs":[],"outputs":[{"name":"","type":"address","internalType":"address"}],"stateMutability":"view"},{"type":"function","name":"takeProfit","inputs":[],"outputs":[],"stateMutability":"nonpayable"},{"type":"function","name":"transferOwnership","inputs":[{"name":"newOwner","type":"address","internalType":"address"}],"outputs":[],"stateMutability":"nonpayable"},{"type":"function","name":"unStake","inputs":[],"outputs":[],"stateMutability":"nonpayable"},{"type":"function","name":"userOrders","inputs":[{"name":"","type":"address","internalType":"address"},{"name":"","type":"uint256","internalType":"uint256"}],"outputs":[{"name":"","type":"uint256","internalType":"uint256"}],"stateMutability":"view"},{"type":"event","name":"NodeSlashed","inputs":[{"name":"slashed_node","type":"address","indexed":true,"internalType":"address"}],"anonymous":false},{"type":"event","name":"NodeStaked","inputs":[{"name":"node","type":"address","indexed":true,"internalType":"address"},{"name":"amount","type":"uint256","indexed":false,"internalType":"uint256"}],"anonymous":false},{"type":"event","name":"NodeUnStaked","inputs":[{"name":"node","type":"address","indexed":true,"internalType":"address"}],"anonymous":false},{"type":"event","name":"OrderCreated","inputs":[{"name":"orderId","type":"uint256","indexed":true,"internalType":"uint256"},{"name":"user","type":"address","indexed":true,"internalType":"address"},{"name":"amount","type":"uint256","indexed":false,"internalType":"uint256"},{"name":"billType","type":"string","indexed":false,"internalType":"string"}],"anonymous":false},{"type":"event","name":"OrderFulfilled","inputs":[{"name":"orderId","type":"uint256","indexed":true,"internalType":"uint256"},{"name":"node","type":"address","indexed":true,"internalType":"address"},{"name":"user","type":"address","indexed":true,"internalType":"address"}],"anonymous":false},{"type":"event","name":"OrderRefunded","inputs":[{"name":"orderId","type":"uint256","indexed":true,"internalType":"uint256"},{"name":"node","type":"address","indexed":true,"internalType":"address"},{"name":"user","type":"address","indexed":true,"internalType":"address"}],"anonymous":false},{"type":"event","name":"OwnershipTransferred","inputs":[{"name":"previousOwner","type":"address","indexed":true,"internalType":"address"},{"name":"newOwner","type":"address","indexed":true,"internalType":"address"}],"anonymous":false},{"type":"error","name":"MUstBeANodeOperator","inputs":[]},{"type":"error","name":"NotEnoughUSDC","inputs":[]},{"type":"error","name":"NotEnoughUSDCForContractReFund","inputs":[]},{"type":"error","name":"NotEnoughUSDCForReFund","inputs":[]},{"type":"error","name":"OrderAlreadyProccess","inputs":[]},{"type":"error","name":"OwnableInvalidOwner","inputs":[{"name":"owner","type":"address","internalType":"address"}]},{"type":"error","name":"OwnableUnauthorizedAccount","inputs":[{"name":"account","type":"address","internalType":"address"}]},{"type":"error","name":"ReFundFailed","inputs":[]},{"type":"error","name":"ReentrancyGuardReentrantCall","inputs":[]},{"type":"error","name":"TokenNotSupported","inputs":[]}],"bytecode":{"object":"0x60806040525f6004555f6005555f60065534801561001b575f5ffd5b50604051613af5380380613af5833981810160405281019061003d919061026c565b3360015f819055505f73ffffffffffffffffffffffffffffffffffffffff168173ffffffffffffffffffffffffffffffffffffffff16036100b5575f6040517f1e4fbdf70000000000000000000000000000000000000000000000000000000081526004016100ac91906102a6565b60405180910390fd5b6100c48161014b60201b60201c565b508060025f6101000a81548173ffffffffffffffffffffffffffffffffffffffff021916908373ffffffffffffffffffffffffffffffffffffffff1602179055508060035f6101000a81548173ffffffffffffffffffffffffffffffffffffffff021916908373ffffffffffffffffffffffffffffffffffffffff160217905550506102bf565b5f60015f9054906101000a900473ffffffffffffffffffffffffffffffffffffffff1690508160015f6101000a81548173ffffffffffffffffffffffffffffffffffffffff021916908373ffffffffffffffffffffffffffffffffffffffff1602179055508173ffffffffffffffffffffffffffffffffffffffff168173ffffffffffffffffffffffffffffffffffffffff167f8be0079c531659141344cd1fd0a4f28419497f9722a3daafe3b4186f6b6457e060405160405180910390a35050565b5f5ffd5b5f73ffffffffffffffffffffffffffffffffffffffff82169050919050565b5f61023b82610212565b9050919050565b61024b81610231565b8114610255575f5ffd5b50565b5f8151905061026681610242565b92915050565b5f602082840312156102815761028061020e565b5b5f61028e84828501610258565b91505092915050565b6102a081610231565b82525050565b5f6020820190506102b95f830184610297565b92915050565b613829806102cc5f395ff3fe6080604052600436106101c5575f3560e01c806373cf575a116100f6578063b419fda911610094578063db8ea62e11610063578063db8ea62e14610602578063e9cbd8221461062c578063eb47ea6614610656578063f2fde38b14610692576101d4565b8063b419fda91461054a578063b789bf5214610574578063c96be4cb1461059e578063d09ef241146105c6576101d4565b80638da5cb5b116100d05780638da5cb5b146104a05780639890220b146104ca578063a85c38ef146104e0578063b2a0616414610520576101d4565b806373cf575a14610424578063743e92ee1461043a578063856652e914610464576101d4565b806350eb9add116101635780636311e8301161013d5780636311e8301461039457806363c69f08146103bc57806370c10578146103f8578063715018a61461040e576101d4565b806350eb9add1461030257806352e9282a1461032c578063582115fb14610356576101d4565b8063189a5a171161019f578063189a5a17146102665780631dae1920146102a45780631e35fed8146102ce5780633a4b66f1146102f8576101d4565b80630e540b3a146101d85780630ee0599c146102145780631372e6671461023e576101d4565b366101d4576101d26106ba565b005b5f5ffd5b3480156101e3575f5ffd5b506101fe60048036038101906101f99190612900565b610823565b60405161020b9190612969565b60405180910390f35b34801561021f575f5ffd5b50610228610cea565b60405161023591906129c1565b60405180910390f35b348015610249575f5ffd5b50610264600480360381019061025f91906129da565b610d0f565b005b348015610271575f5ffd5b5061028c60048036038101906102879190612a2f565b611286565b60405161029b93929190612a5a565b60405180910390f35b3480156102af575f5ffd5b506102b86112ac565b6040516102c59190612969565b60405180910390f35b3480156102d9575f5ffd5b506102e26112b2565b6040516102ef9190612969565b60405180910390f35b6103006106ba565b005b34801561030d575f5ffd5b506103166112fd565b6040516103239190612969565b60405180910390f35b348015610337575f5ffd5b50610340611306565b60405161034d9190612969565b60405180910390f35b348015610361575f5ffd5b5061037c60048036038101906103779190612a2f565b61131b565b60405161038b93929190612a5a565b60405180910390f35b34801561039f575f5ffd5b506103ba60048036038101906103b591906129da565b6113a2565b005b3480156103c7575f5ffd5b506103e260048036038101906103dd9190612a2f565b6118ce565b6040516103ef9190612b46565b60405180910390f35b348015610403575f5ffd5b5061040c611961565b005b348015610419575f5ffd5b50610422611afd565b005b34801561042f575f5ffd5b50610438611b10565b005b348015610445575f5ffd5b5061044e611cb3565b60405161045b9190612ba6565b60405180910390f35b34801561046f575f5ffd5b5061048a60048036038101906104859190612bbf565b611d25565b6040516104979190612969565b60405180910390f35b3480156104ab575f5ffd5b506104b4611d50565b6040516104c191906129c1565b60405180910390f35b3480156104d5575f5ffd5b506104de611d78565b005b3480156104eb575f5ffd5b50610506600480360381019061050191906129da565b611f63565b604051610517959493929190612c77565b60405180910390f35b34801561052b575f5ffd5b50610534612053565b60405161054191906129c1565b60405180910390f35b348015610555575f5ffd5b5061055e61207b565b60405161056b9190612969565b60405180910390f35b34801561057f575f5ffd5b5061058861211a565b6040516105959190612969565b60405180910390f35b3480156105a9575f5ffd5b506105c460048036038101906105bf9190612a2f565b612120565b005b3480156105d1575f5ffd5b506105ec60048036038101906105e791906129da565b6122e1565b6040516105f99190612da8565b60405180910390f35b34801561060d575f5ffd5b5061061661242f565b6040516106239190612969565b60405180910390f35b348015610637575f5ffd5b50610640612435565b60405161064d9190612e23565b60405180910390f35b348015610661575f5ffd5b5061067c60048036038101906106779190612a2f565b61245a565b6040516106899190612969565b60405180910390f35b34801561069d575f5ffd5b506106b860048036038101906106b39190612a2f565b6124fb565b005b5f34116106fc576040517f08c379a00000000000000000000000000000000000000000000000000000000081526004016106f390612e86565b60405180910390fd5b5f60095f3373ffffffffffffffffffffffffffffffffffffffff1673ffffffffffffffffffffffffffffffffffffffff1681526020019081526020015f205f0154111561077e576040517f08c379a000000000000000000000000000000000000000000000000000000000815260040161077590612eee565b60405180910390fd5b3460095f3373ffffffffffffffffffffffffffffffffffffffff1673ffffffffffffffffffffffffffffffffffffffff1681526020019081526020015f205f015f8282546107cc9190612f39565b925050819055503373ffffffffffffffffffffffffffffffffffffffff167ff02b9c90d1a12278c9244be1ddc794b15f8a3b9d50cf085ad7711683c0f9a090346040516108199190612969565b60405180910390a2565b5f61082c61257f565b5f831161086e576040517f08c379a000000000000000000000000000000000000000000000000000000000815260040161086590612fb6565b60405180910390fd5b5f60025f9054906101000a900473ffffffffffffffffffffffffffffffffffffffff1673ffffffffffffffffffffffffffffffffffffffff1663dd62ed3e33306040518363ffffffff1660e01b81526004016108cb929190612fd4565b602060405180830381865afa1580156108e6573d5f5f3e3d5ffd5b505050506040513d601f19601f8201168201806040525081019061090a919061300f565b90508381101561094f576040517f08c379a000000000000000000000000000000000000000000000000000000000815260040161094690613084565b60405180910390fd5b8360025f9054906101000a900473ffffffffffffffffffffffffffffffffffffffff1673ffffffffffffffffffffffffffffffffffffffff166370a08231336040518263ffffffff1660e01b81526004016109aa91906129c1565b602060405180830381865afa1580156109c5573d5f5f3e3d5ffd5b505050506040513d601f19601f820116820180604052508101906109e9919061300f565b1015610a21576040517ff428bbf400000000000000000000000000000000000000000000000000000000815260040160405180910390fd5b60025f9054906101000a900473ffffffffffffffffffffffffffffffffffffffff1673ffffffffffffffffffffffffffffffffffffffff166323b872dd3330876040518463ffffffff1660e01b8152600401610a7f939291906130a2565b6020604051808303815f875af1158015610a9b573d5f5f3e3d5ffd5b505050506040513d601f19601f82011682018060405250810190610abf9190613101565b610afe576040517f08c379a0000000000000000000000000000000000000000000000000000000008152600401610af590613176565b60405180910390fd5b5f6040518060a001604052803373ffffffffffffffffffffffffffffffffffffffff1681526020018681526020015f151581526020015f151581526020018581525090508060085f60075481526020019081526020015f205f820151815f015f6101000a81548173ffffffffffffffffffffffffffffffffffffffff021916908373ffffffffffffffffffffffffffffffffffffffff160217905550602082015181600101556040820151816002015f6101000a81548160ff02191690831515021790555060608201518160020160016101000a81548160ff0219169083151502179055506080820151816003019081610bf89190613388565b50905050600a5f3373ffffffffffffffffffffffffffffffffffffffff1673ffffffffffffffffffffffffffffffffffffffff1681526020019081526020015f20600754908060018154018082558091505060019003905f5260205f20015f90919091909150553373ffffffffffffffffffffffffffffffffffffffff166007547fa1e197cb646bdb1f0be1243655bcfebed2ccd3adca8d37b27926ecbcddea300a8787604051610caa929190613457565b60405180910390a360075f815480929190610cc490613485565b91905055506001600754610cd891906134cc565b92505050610ce46125c3565b92915050565b60035f9054906101000a900473ffffffffffffffffffffffffffffffffffffffff1681565b610d1761257f565b5f60085f8381526020019081526020015f2090505f60095f3373ffffffffffffffffffffffffffffffffffffffff1673ffffffffffffffffffffffffffffffffffffffff1681526020019081526020015f205f015411610da3576040517fb1f7fb2800000000000000000000000000000000000000000000000000000000815260040160405180910390fd5b806002015f9054906101000a900460ff1680610dcd57508060020160019054906101000a900460ff165b15610e04576040517f21e6c18100000000000000000000000000000000000000000000000000000000815260040160405180910390fd5b5f620186a090505f61c35090508082610e1d9190612f39565b83600101541015610e5a576040517f9f1d331f00000000000000000000000000000000000000000000000000000000815260040160405180910390fd5b81836001015f828254610e6d91906134cc565b9250508190555080836001015f828254610e8791906134cc565b925050819055508060045f828254610e9f9190612f39565b92505081905550826001015460025f9054906101000a900473ffffffffffffffffffffffffffffffffffffffff1673ffffffffffffffffffffffffffffffffffffffff166370a08231306040518263ffffffff1660e01b8152600401610f0591906129c1565b602060405180830381865afa158015610f20573d5f5f3e3d5ffd5b505050506040513d601f19601f82011682018060405250810190610f44919061300f565b11610f7b576040517fddef6b3800000000000000000000000000000000000000000000000000000000815260040160405180910390fd5b5f73ffffffffffffffffffffffffffffffffffffffff16835f015f9054906101000a900473ffffffffffffffffffffffffffffffffffffffff1673ffffffffffffffffffffffffffffffffffffffff160361100b576040517f08c379a000000000000000000000000000000000000000000000000000000000815260040161100290613549565b60405180910390fd5b60025f9054906101000a900473ffffffffffffffffffffffffffffffffffffffff1673ffffffffffffffffffffffffffffffffffffffff1663a9059cbb845f015f9054906101000a900473ffffffffffffffffffffffffffffffffffffffff1685600101546040518363ffffffff1660e01b815260040161108d929190613567565b6020604051808303815f875af11580156110a9573d5f5f3e3d5ffd5b505050506040513d601f19601f820116820180604052508101906110cd9190613101565b611103576040517f7e0e10d000000000000000000000000000000000000000000000000000000000815260040160405180910390fd5b60025f9054906101000a900473ffffffffffffffffffffffffffffffffffffffff1673ffffffffffffffffffffffffffffffffffffffff1663a9059cbb33846040518363ffffffff1660e01b815260040161115f929190613567565b6020604051808303815f875af115801561117b573d5f5f3e3d5ffd5b505050506040513d601f19601f8201168201806040525081019061119f9190613101565b6111de576040517f08c379a00000000000000000000000000000000000000000000000000000000081526004016111d5906135d8565b60405180910390fd5b60018360020160016101000a81548160ff021916908315150217905550825f015f9054906101000a900473ffffffffffffffffffffffffffffffffffffffff1673ffffffffffffffffffffffffffffffffffffffff163373ffffffffffffffffffffffffffffffffffffffff16857f31bc90d7bd340d05db7e99d9446a2e8383813730669ff654e0e280f4e4db758960405160405180910390a45050506112836125c3565b50565b6009602052805f5260405f205f91509050805f0154908060010154908060020154905083565b60055481565b5f5f60095f3373ffffffffffffffffffffffffffffffffffffffff1673ffffffffffffffffffffffffffffffffffffffff1681526020019081526020015f209050805f015491505090565b5f600454905090565b5f600160075461131691906134cc565b905090565b5f5f5f5f60095f8673ffffffffffffffffffffffffffffffffffffffff1673ffffffffffffffffffffffffffffffffffffffff1681526020019081526020015f206040518060600160405290815f8201548152602001600182015481526020016002820154815250509050805f015181602001518260400151935093509350509193909250565b5f60085f8381526020019081526020015f2090505f60095f3373ffffffffffffffffffffffffffffffffffffffff1673ffffffffffffffffffffffffffffffffffffffff1681526020019081526020015f205f01541161142e576040517fb1f7fb2800000000000000000000000000000000000000000000000000000000815260040160405180910390fd5b806002015f9054906101000a900460ff168061145857508060020160019054906101000a900460ff165b1561148f576040517f21e6c18100000000000000000000000000000000000000000000000000000000815260040160405180910390fd5b5f62030d4090505f61c350905080826114a89190612f39565b836001015410156114e5576040517f9f1d331f00000000000000000000000000000000000000000000000000000000815260040160405180910390fd5b81836001015f8282546114f891906134cc565b9250508190555080836001015f82825461151291906134cc565b925050819055508060045f82825461152a9190612f39565b92505081905550826001015460025f9054906101000a900473ffffffffffffffffffffffffffffffffffffffff1673ffffffffffffffffffffffffffffffffffffffff166370a08231306040518263ffffffff1660e01b815260040161159091906129c1565b602060405180830381865afa1580156115ab573d5f5f3e3d5ffd5b505050506040513d601f19601f820116820180604052508101906115cf919061300f565b11611606576040517fddef6b3800000000000000000000000000000000000000000000000000000000815260040160405180910390fd5b5f73ffffffffffffffffffffffffffffffffffffffff16835f015f9054906101000a900473ffffffffffffffffffffffffffffffffffffffff1673ffffffffffffffffffffffffffffffffffffffff1603611696576040517f08c379a000000000000000000000000000000000000000000000000000000000815260040161168d90613549565b60405180910390fd5b60025f9054906101000a900473ffffffffffffffffffffffffffffffffffffffff1673ffffffffffffffffffffffffffffffffffffffff1663a9059cbb338486600101546116e49190612f39565b6040518363ffffffff1660e01b8152600401611701929190613567565b6020604051808303815f875af115801561171d573d5f5f3e3d5ffd5b505050506040513d601f19601f820116820180604052508101906117419190613101565b611780576040517f08c379a000000000000000000000000000000000000000000000000000000000815260040161177790613640565b60405180910390fd5b60095f3373ffffffffffffffffffffffffffffffffffffffff1673ffffffffffffffffffffffffffffffffffffffff1681526020019081526020015f206001015f8154809291906117d090613485565b9190505550826001015460095f3373ffffffffffffffffffffffffffffffffffffffff1673ffffffffffffffffffffffffffffffffffffffff1681526020019081526020015f206002015f8282546118289190612f39565b925050819055506001836002015f6101000a81548160ff021916908315150217905550825f015f9054906101000a900473ffffffffffffffffffffffffffffffffffffffff1673ffffffffffffffffffffffffffffffffffffffff163373ffffffffffffffffffffffffffffffffffffffff16857f404661ead0236174a7df940d1b816b818801dc781a3f39a698231f0483349ee160405160405180910390a450505050565b6060600a5f8373ffffffffffffffffffffffffffffffffffffffff1673ffffffffffffffffffffffffffffffffffffffff1681526020019081526020015f2080548060200260200160405190810160405280929190818152602001828054801561195557602002820191905f5260205f20905b815481526020019060010190808311611941575b50505050509050919050565b6119696125cc565b5f60045490505f60055490505f82116119b7576040517f08c379a00000000000000000000000000000000000000000000000000000000081526004016119ae906136a8565b60405180910390fd5b5f6004819055505f6005819055505f60025f9054906101000a900473ffffffffffffffffffffffffffffffffffffffff1673ffffffffffffffffffffffffffffffffffffffff1663a9059cbb33856040518363ffffffff1660e01b8152600401611a22929190613567565b6020604051808303815f875af1158015611a3e573d5f5f3e3d5ffd5b505050506040513d601f19601f82011682018060405250810190611a629190613101565b90505f821115611ab857611a74611d50565b73ffffffffffffffffffffffffffffffffffffffff166108fc8390811502906040515f60405180830381858888f19350505050158015611ab6573d5f5f3e3d5ffd5b505b80611af8576040517f08c379a0000000000000000000000000000000000000000000000000000000008152600401611aef90613176565b60405180910390fd5b505050565b611b056125cc565b611b0e5f612653565b565b5f60095f3373ffffffffffffffffffffffffffffffffffffffff1673ffffffffffffffffffffffffffffffffffffffff1681526020019081526020015f205f015403611b91576040517f08c379a0000000000000000000000000000000000000000000000000000000008152600401611b8890612e86565b60405180910390fd5b5f60095f3373ffffffffffffffffffffffffffffffffffffffff1673ffffffffffffffffffffffffffffffffffffffff1681526020019081526020015f205f015490508060095f3373ffffffffffffffffffffffffffffffffffffffff1673ffffffffffffffffffffffffffffffffffffffff1681526020019081526020015f205f015f828254611c2291906134cc565b925050819055503373ffffffffffffffffffffffffffffffffffffffff166108fc8290811502906040515f60405180830381858888f19350505050158015611c6c573d5f5f3e3d5ffd5b503373ffffffffffffffffffffffffffffffffffffffff167f4cd07c005e99d10c2c002206c38b1f384d0368325026dddb87eae65b94d0dd6f60405160405180910390a250565b611cbb61271d565b60095f3373ffffffffffffffffffffffffffffffffffffffff1673ffffffffffffffffffffffffffffffffffffffff1681526020019081526020015f206040518060600160405290815f820154815260200160018201548152602001600282015481525050905090565b600a602052815f5260405f208181548110611d3e575f80fd5b905f5260205f20015f91509150505481565b5f60015f9054906101000a900473ffffffffffffffffffffffffffffffffffffffff16905090565b611d806125cc565b5f4790505f811115611dd857611d94611d50565b73ffffffffffffffffffffffffffffffffffffffff166108fc8290811502906040515f60405180830381858888f19350505050158015611dd6573d5f5f3e3d5ffd5b505b5f60025f9054906101000a900473ffffffffffffffffffffffffffffffffffffffff1673ffffffffffffffffffffffffffffffffffffffff166370a08231306040518263ffffffff1660e01b8152600401611e3391906129c1565b602060405180830381865afa158015611e4e573d5f5f3e3d5ffd5b505050506040513d601f19601f82011682018060405250810190611e72919061300f565b90505f811115611f5f5760025f9054906101000a900473ffffffffffffffffffffffffffffffffffffffff1673ffffffffffffffffffffffffffffffffffffffff1663a9059cbb611ec1611d50565b836040518363ffffffff1660e01b8152600401611edf929190613567565b6020604051808303815f875af1158015611efb573d5f5f3e3d5ffd5b505050506040513d601f19601f82011682018060405250810190611f1f9190613101565b611f5e576040517f08c379a0000000000000000000000000000000000000000000000000000000008152600401611f5590613710565b60405180910390fd5b5b5050565b6008602052805f5260405f205f91509050805f015f9054906101000a900473ffffffffffffffffffffffffffffffffffffffff1690806001015490806002015f9054906101000a900460ff16908060020160019054906101000a900460ff1690806003018054611fd2906131c1565b80601f0160208091040260200160405190810160405280929190818152602001828054611ffe906131c1565b80156120495780601f1061202057610100808354040283529160200191612049565b820191905f5260205f20905b81548152906001019060200180831161202c57829003601f168201915b5050505050905085565b5f60035f9054906101000a900473ffffffffffffffffffffffffffffffffffffffff16905090565b5f60025f9054906101000a900473ffffffffffffffffffffffffffffffffffffffff1673ffffffffffffffffffffffffffffffffffffffff166370a08231306040518263ffffffff1660e01b81526004016120d691906129c1565b602060405180830381865afa1580156120f1573d5f5f3e3d5ffd5b505050506040513d601f19601f82011682018060405250810190612115919061300f565b905090565b60075481565b6121286125cc565b5f60095f3373ffffffffffffffffffffffffffffffffffffffff1673ffffffffffffffffffffffffffffffffffffffff1681526020019081526020015f205f0154116121a9576040517f08c379a00000000000000000000000000000000000000000000000000000000081526004016121a090613778565b60405180910390fd5b600260095f3373ffffffffffffffffffffffffffffffffffffffff1673ffffffffffffffffffffffffffffffffffffffff1681526020019081526020015f205f01546121f591906137c3565b60055f8282546122059190612f39565b92505081905550600260095f3373ffffffffffffffffffffffffffffffffffffffff1673ffffffffffffffffffffffffffffffffffffffff1681526020019081526020015f205f015461225891906137c3565b60095f3373ffffffffffffffffffffffffffffffffffffffff1673ffffffffffffffffffffffffffffffffffffffff1681526020019081526020015f205f01819055508073ffffffffffffffffffffffffffffffffffffffff167f29f3a9a9c7f6d4074ec8817742795e031d525ab8fe33b05ee339002580ef3a6460405160405180910390a250565b6122e961273b565b60085f8381526020019081526020015f206040518060a00160405290815f82015f9054906101000a900473ffffffffffffffffffffffffffffffffffffffff1673ffffffffffffffffffffffffffffffffffffffff1673ffffffffffffffffffffffffffffffffffffffff16815260200160018201548152602001600282015f9054906101000a900460ff161515151581526020016002820160019054906101000a900460ff161515151581526020016003820180546123a8906131c1565b80601f01602080910402602001604051908101604052809291908181526020018280546123d4906131c1565b801561241f5780601f106123f65761010080835404028352916020019161241f565b820191905f5260205f20905b81548152906001019060200180831161240257829003601f168201915b5050505050815250509050919050565b60045481565b60025f9054906101000a900473ffffffffffffffffffffffffffffffffffffffff1681565b5f60025f9054906101000a900473ffffffffffffffffffffffffffffffffffffffff1673ffffffffffffffffffffffffffffffffffffffff166370a08231836040518263ffffffff1660e01b81526004016124b591906129c1565b602060405180830381865afa1580156124d0573d5f5f3e3d5ffd5b505050506040513d601f19601f820116820180604052508101906124f4919061300f565b9050919050565b6125036125cc565b5f73ffffffffffffffffffffffffffffffffffffffff168173ffffffffffffffffffffffffffffffffffffffff1603612573575f6040517f1e4fbdf700000000000000000000000000000000000000000000000000000000815260040161256a91906129c1565b60405180910390fd5b61257c81612653565b50565b60025f54036125ba576040517f3ee5aeb500000000000000000000000000000000000000000000000000000000815260040160405180910390fd5b60025f81905550565b60015f81905550565b6125d4612716565b73ffffffffffffffffffffffffffffffffffffffff166125f2611d50565b73ffffffffffffffffffffffffffffffffffffffff161461265157612615612716565b6040517f118cdaa700000000000000000000000000000000000000000000000000000000815260040161264891906129c1565b60405180910390fd5b565b5f60015f9054906101000a900473ffffffffffffffffffffffffffffffffffffffff1690508160015f6101000a81548173ffffffffffffffffffffffffffffffffffffffff021916908373ffffffffffffffffffffffffffffffffffffffff1602179055508173ffffffffffffffffffffffffffffffffffffffff168173ffffffffffffffffffffffffffffffffffffffff167f8be0079c531659141344cd1fd0a4f28419497f9722a3daafe3b4186f6b6457e060405160405180910390a35050565b5f33905090565b60405180606001604052805f81526020015f81526020015f81525090565b6040518060a001604052805f73ffffffffffffffffffffffffffffffffffffffff1681526020015f81526020015f151581526020015f15158152602001606081525090565b5f604051905090565b5f5ffd5b5f5ffd5b5f819050919050565b6127a381612791565b81146127ad575f5ffd5b50565b5f813590506127be8161279a565b92915050565b5f5ffd5b5f5ffd5b5f601f19601f8301169050919050565b7f4e487b71000000000000000000000000000000000000000000000000000000005f52604160045260245ffd5b612812826127cc565b810181811067ffffffffffffffff82111715612831576128306127dc565b5b80604052505050565b5f612843612780565b905061284f8282612809565b919050565b5f67ffffffffffffffff82111561286e5761286d6127dc565b5b612877826127cc565b9050602081019050919050565b828183375f83830152505050565b5f6128a461289f84612854565b61283a565b9050828152602081018484840111156128c0576128bf6127c8565b5b6128cb848285612884565b509392505050565b5f82601f8301126128e7576128e66127c4565b5b81356128f7848260208601612892565b91505092915050565b5f5f6040838503121561291657612915612789565b5b5f612923858286016127b0565b925050602083013567ffffffffffffffff8111156129445761294361278d565b5b612950858286016128d3565b9150509250929050565b61296381612791565b82525050565b5f60208201905061297c5f83018461295a565b92915050565b5f73ffffffffffffffffffffffffffffffffffffffff82169050919050565b5f6129ab82612982565b9050919050565b6129bb816129a1565b82525050565b5f6020820190506129d45f8301846129b2565b92915050565b5f602082840312156129ef576129ee612789565b5b5f6129fc848285016127b0565b91505092915050565b612a0e816129a1565b8114612a18575f5ffd5b50565b5f81359050612a2981612a05565b92915050565b5f60208284031215612a4457612a43612789565b5b5f612a5184828501612a1b565b91505092915050565b5f606082019050612a6d5f83018661295a565b612a7a602083018561295a565b612a87604083018461295a565b949350505050565b5f81519050919050565b5f82825260208201905092915050565b5f819050602082019050919050565b612ac181612791565b82525050565b5f612ad28383612ab8565b60208301905092915050565b5f602082019050919050565b5f612af482612a8f565b612afe8185612a99565b9350612b0983612aa9565b805f5b83811015612b39578151612b208882612ac7565b9750612b2b83612ade565b925050600181019050612b0c565b5085935050505092915050565b5f6020820190508181035f830152612b5e8184612aea565b905092915050565b606082015f820151612b7a5f850182612ab8565b506020820151612b8d6020850182612ab8565b506040820151612ba06040850182612ab8565b50505050565b5f606082019050612bb95f830184612b66565b92915050565b5f5f60408385031215612bd557612bd4612789565b5b5f612be285828601612a1b565b9250506020612bf3858286016127b0565b9150509250929050565b5f8115159050919050565b612c1181612bfd565b82525050565b5f81519050919050565b5f82825260208201905092915050565b8281835e5f83830152505050565b5f612c4982612c17565b612c538185612c21565b9350612c63818560208601612c31565b612c6c816127cc565b840191505092915050565b5f60a082019050612c8a5f8301886129b2565b612c97602083018761295a565b612ca46040830186612c08565b612cb16060830185612c08565b8181036080830152612cc38184612c3f565b90509695505050505050565b612cd8816129a1565b82525050565b612ce781612bfd565b82525050565b5f82825260208201905092915050565b5f612d0782612c17565b612d118185612ced565b9350612d21818560208601612c31565b612d2a816127cc565b840191505092915050565b5f60a083015f830151612d4a5f860182612ccf565b506020830151612d5d6020860182612ab8565b506040830151612d706040860182612cde565b506060830151612d836060860182612cde565b5060808301518482036080860152612d9b8282612cfd565b9150508091505092915050565b5f6020820190508181035f830152612dc08184612d35565b905092915050565b5f819050919050565b5f612deb612de6612de184612982565b612dc8565b612982565b9050919050565b5f612dfc82612dd1565b9050919050565b5f612e0d82612df2565b9050919050565b612e1d81612e03565b82525050565b5f602082019050612e365f830184612e14565b92915050565b7f4d757374207374616b65204554480000000000000000000000000000000000005f82015250565b5f612e70600e83612c21565b9150612e7b82612e3c565b602082019050919050565b5f6020820190508181035f830152612e9d81612e64565b9050919050565b7f416c7265616479207374616b6564207769746820746869732077616c6c6574005f82015250565b5f612ed8601f83612c21565b9150612ee382612ea4565b602082019050919050565b5f6020820190508181035f830152612f0581612ecc565b9050919050565b7f4e487b71000000000000000000000000000000000000000000000000000000005f52601160045260245ffd5b5f612f4382612791565b9150612f4e83612791565b9250828201905080821115612f6657612f65612f0c565b5b92915050565b7f416d6f756e74206d7573742062652067726561746572207468616e20300000005f82015250565b5f612fa0601d83612c21565b9150612fab82612f6c565b602082019050919050565b5f6020820190508181035f830152612fcd81612f94565b9050919050565b5f604082019050612fe75f8301856129b2565b612ff460208301846129b2565b9392505050565b5f815190506130098161279a565b92915050565b5f6020828403121561302457613023612789565b5b5f61303184828501612ffb565b91505092915050565b7f496e73756666696369656e7420616c6c6f77616e6365000000000000000000005f82015250565b5f61306e601683612c21565b91506130798261303a565b602082019050919050565b5f6020820190508181035f83015261309b81613062565b9050919050565b5f6060820190506130b55f8301866129b2565b6130c260208301856129b2565b6130cf604083018461295a565b949350505050565b6130e081612bfd565b81146130ea575f5ffd5b50565b5f815190506130fb816130d7565b92915050565b5f6020828403121561311657613115612789565b5b5f613123848285016130ed565b91505092915050565b7f5472616e73666572206661696c656400000000000000000000000000000000005f82015250565b5f613160600f83612c21565b915061316b8261312c565b602082019050919050565b5f6020820190508181035f83015261318d81613154565b9050919050565b7f4e487b71000000000000000000000000000000000000000000000000000000005f52602260045260245ffd5b5f60028204905060018216806131d857607f821691505b6020821081036131eb576131ea613194565b5b50919050565b5f819050815f5260205f209050919050565b5f6020601f8301049050919050565b5f82821b905092915050565b5f6008830261324d7fffffffffffffffffffffffffffffffffffffffffffffffffffffffffffffffff82613212565b6132578683613212565b95508019841693508086168417925050509392505050565b5f61328961328461327f84612791565b612dc8565b612791565b9050919050565b5f819050919050565b6132a28361326f565b6132b66132ae82613290565b84845461321e565b825550505050565b5f5f905090565b6132cd6132be565b6132d8818484613299565b505050565b5b818110156132fb576132f05f826132c5565b6001810190506132de565b5050565b601f82111561334057613311816131f1565b61331a84613203565b81016020851015613329578190505b61333d61333585613203565b8301826132dd565b50505b505050565b5f82821c905092915050565b5f6133605f1984600802613345565b1980831691505092915050565b5f6133788383613351565b9150826002028217905092915050565b61339182612c17565b67ffffffffffffffff8111156133aa576133a96127dc565b5b6133b482546131c1565b6133bf8282856132ff565b5f60209050601f8311600181146133f0575f84156133de578287015190505b6133e8858261336d565b86555061344f565b601f1984166133fe866131f1565b5f5b8281101561342557848901518255600182019150602085019450602081019050613400565b86831015613442578489015161343e601f891682613351565b8355505b6001600288020188555050505b505050505050565b5f60408201905061346a5f83018561295a565b818103602083015261347c8184612c3f565b90509392505050565b5f61348f82612791565b91507fffffffffffffffffffffffffffffffffffffffffffffffffffffffffffffffff82036134c1576134c0612f0c565b5b600182019050919050565b5f6134d682612791565b91506134e183612791565b92508282039050818111156134f9576134f8612f0c565b5b92915050565b7f4d757374204861766520412055736572204164647265737300000000000000005f82015250565b5f613533601883612c21565b915061353e826134ff565b602082019050919050565b5f6020820190508181035f83015261356081613527565b9050919050565b5f60408201905061357a5f8301856129b2565b613587602083018461295a565b9392505050565b7f4e6f6465206f70657261746f7220726566756e64206661696c656400000000005f82015250565b5f6135c2601b83612c21565b91506135cd8261358e565b602082019050919050565b5f6020820190508181035f8301526135ef816135b6565b9050919050565b7f4e6f6465206f70657261746f7220637265646974206661696c656400000000005f82015250565b5f61362a601b83612c21565b9150613635826135f6565b602082019050919050565b5f6020820190508181035f8301526136578161361e565b9050919050565b7f4e6f2070726f6669747320746f207769746864726177000000000000000000005f82015250565b5f613692601683612c21565b915061369d8261365e565b602082019050919050565b5f6020820190508181035f8301526136bf81613686565b9050919050565b7f55534443207472616e73666572206661696c65640000000000000000000000005f82015250565b5f6136fa601483612c21565b9150613705826136c6565b602082019050919050565b5f6020820190508181035f830152613727816136ee565b9050919050565b7f41646472657373206973206e6f742061204e6f646500000000000000000000005f82015250565b5f613762601583612c21565b915061376d8261372e565b602082019050919050565b5f6020820190508181035f83015261378f81613756565b9050919050565b7f4e487b71000000000000000000000000000000000000000000000000000000005f52601260045260245ffd5b5f6137cd82612791565b91506137d883612791565b9250826137e8576137e7613796565b5b82820490509291505056fea26469706673582212204198426d84f6ad8ec100d0419286492fc50d1749bb9dc645a51621b3eb3d9e9f64736f6c634300081d0033","linkReferences":{}},"methodIdentifiers":{"createOrder(uint256,string)":"0e540b3a","drain()":"9890220b","feeProfit()":"db8ea62e","fulfillOrder(uint256)":"6311e830","getCurrentOrderId()":"52e9282a","getFeeProfit()":"50eb9add","getNode()":"743e92ee","getNodeBalance()":"1e35fed8","getNodeInfo(address)":"582115fb","getOrder(uint256)":"d09ef241","getSupportedToken()":"b2a06164","getUSDCBal()":"b419fda9","getUserOrders(address)":"63c69f08","getUserUSDCBalance(address)":"eb47ea66","nodes(address)":"189a5a17","orderCounter()":"b789bf52","orders(uint256)":"a85c38ef","owner()":"8da5cb5b","refundUser(uint256)":"1372e667","renounceOwnership()":"715018a6","slash(address)":"c96be4cb","slashedEthBal()":"1dae1920","stablecoin()":"e9cbd822","stake()":"3a4b66f1","supportedToken()":"0ee0599c","takeProfit()":"70c10578","transferOwnership(address)":"f2fde38b","unStake()":"73cf575a","userOrders(address,uint256)":"856652e9"},"id":24}